:020000041000EA
:1000000000B5324B212058609868022188439860DF
:10001000D860186158612E4B002199600221596106
:100020000121F02299502B49196001219960352056
:1000300000F044F80222904214D00621196600F024
:1000400034F8196E01211966002018661A6600F04E
:100050002CF8196E196E196E052000F02FF8012189
:100060000842F9D1002199601B49196000215960AB
:100070001A491B48016001219960EB211966A021F2
:10008000196600F012F800219960164914480160C1
:100090000121996001BC002800D000471248134993
:1000A000086003C880F30888084703B5996A0420EC
:1000B0000142FBD001200142F8D103BD02B5186610
:1000C0001866FFF7F2FF186E186E02BD00000240BE
:1000D000000000180000070000035F00212200005C
:1000E000F4000018222000A00001001008ED00E03C
:1000F00000000000000000000000000074B24E7A12
:1001000000200420F7010010CB010010CD010010E9
:10011000C9010010C9010010C9010010C901001077
:10012000C9010010C9010010C9010010CF01001061
:10013000C9010010C9010010D1010010D301001045
:10014000C1010010C1010010C1010010C101001067
:10015000C1010010C1010010C1010010C101001057
:10016000C1010010C1010010C1010010C101001047
:10017000C1010010C1010010C1010010C101001037
:10018000C1010010C1010010C1010010C101001027
:10019000C1010010C1010010C1010010C101001017
:1001A000C1010010C1010010C1010010C101001007
:1001B000C1010010C1010010C1010010C1010010F7
:1001C000EFF30580103800BE00BE00BE00BE00BECA
:1001D00000BE00BEF2EB8871002000102820001045
:1001E0003802001090A31AE700201E49086006C8D4
:1001F00081F3088810471C480068002801D00020BF
:10020000F3E70DA40ECC002902D000F012F8F9E7B4
:100210001649174A002000E001C19142FCD115495E
:100220008847154988471549884700BEFDE701C939
:1002300001C29A42FBD3704728200010C000002062
:1002400040020020A821001000000420000004202B
:10025000A82100100010042000100420000000005D
:100260007047000008ED00E0000000D040020020D0
:10027000200600202918001081020010211800100B
:1002800010B501F0C9FBFA20C00000F003FD1048D2
:1002900001F012FC0F4801F00FFC0F4801F00CFCBC
:1002A0000E4801F009FC0E4801F006FC0D4801F073
:1002B00003FC0D4801F000FC0C4801F0FDFB0C4C68
:1002C000200001F0F9FBFA20800000F0E3FCF7E7E2
:1002D000AC1D0010D41D0010F41D00101C1E0010D9
:1002E000301E0010501E0010801E0010A41E0010B2
:1002F000C41E001010B54024074A83009A181268E3
:10030000C0005440C0222240044C1B191A60044B08
:10031000C018416010BDC04604C0014004D0014077
:10032000004001400FB400B5084883B001F0C4FBA1
:10033000049B002B07D005A91800019101F054FA85
:10034000034801F0B9FB012001F066FAD81E001045
:10035000C01E001070B58C461600EFF3108472B604
:100360000F490B68002BFCD0BFF35F8F6346DB089F
:10037000C5180722C05C63461A40012393401A0047
:100380000240034207D118432870BFF35F8F0A6011
:1003900084F3108870BD61463000FFF7C3FFC0468C
:1003A0002C0100D0044A1078431CDBB2172B00D973
:1003B000102313707047C046980100200021044BA1
:1003C000044ABFF35F8F02C39342FAD17047C0461D
:1003D000000100D0800100D0084B094A1360094A8F
:1003E0001360094A1360094A1360094A1360094AF5
:1003F0001360094A1360094A136070478080808047
:1004000000E400E004E400E008E400E00CE400E0C4
:1004100010E400E014E400E018E400E01CE400E074
:100420001F2318401E3B8340002905D0C021044AE9
:100430004900535013607047802201498B50FAE7FE
:1004400000E100E010B5EFF3108C72B60F4A1368AC
:10045000002BFCD0BFF35F8F0D4B10309B688000EA
:100460001B580C4A934201D099420CD1084B9B680F
:100470001950BFF35F8FBFF35F8F0022034B1A60E9
:100480008CF3108810BD00F07DFFC046240100D021
:1004900000ED00E0C1010010F0B5DE4657464E46C3
:1004A0004546E0B583B0EFF3108972B65D4A136834
:1004B000002BFCD0BFF35F8F5B4B5C4E9A68030050
:1004C00010339C0012599846B2423BD08A424CD01D
:1004D000574FBC46D71B2F2F34D8564B1F271D68AC
:1004E0000740AA460125BD4080270195DD51BFF395
:1004F0005F8FEFF30585AB46002D38D101231D003A
:100500008540280055460540100098438768AA4654
:10051000B94208D17CE073009B199B0063449F683B
:10052000B9422DD0180006268657002EF3DAB942BC
:100530004CD05346002B1ED0C0213E4B01984900A1
:1005400058501860384B9B681A51BFF35F8FBFF348
:100550005F8F0022334B1A6089F3108803B0F0BC20
:10056000BB46B246A946A046F0BD3200EAE7A84520
:10057000C4D000F007FF80232E490198C850E1E75E
:100580000627DF57002F22DB7900C81985002E00CF
:100590006644B0689860F079D8710620305698713A
:1005A000002826DB6046B688C01A7605361576190F
:1005B00080190005204E400D30439880CB191F490B
:1005C0009B000878634498710F70B2E703005946A6
:1005D000002910D1FF318171194981801748654682
:1005E0000178997117495B1B5B415943090D0170F3
:1005F0009FE71348E1E714491448C91A08394E0225
:10060000760D30439880124849080143D98090E71D
:100610000627C7570300002FB6DA59460029EAD14A
:100620003200DBE7240100D000ED00E0C101001042
:100630009C01002000E100E000E0FFFF1C0600201C
:1006400001BDFFFFAAAA0000D601002000F0FFFFB5
:1006500000F8FFFF0123034370B59C46EFF30581CB
:10066000EFF3108572B6214A1368002BFCD0BFF35C
:100670005F8F1F4B04001F4AE41A64416243120D4E
:100680001D4C8900A66852B2765866451CD00621DA
:10069000595691421CD012215956914222D01E2106
:1006A0005956914220D02A2159560324914210D004
:1006B000124B19781A708171BFF35F8F00220B4BB8
:1006C0001A6085F3108870BDA3680D4C5C50EFE78D
:1006D00000246100091989005B18FF2199710949FB
:1006E0009980E5E70124F4E70224F2E7240100D031
:1006F0009C010020AAAA000000ED00E01C060020DA
:10070000C101001001BDFFFF024BC9188900016043
:100710007047C0464000003470B5114C114DAC42DA
:100720000FD2FF262368002B0CD0FFF73BFE010001
:100730002000FFF7E9FFA680BFF35F8F0834AC42CB
:10074000F0D370BDFFF72EFE01002000FFF7DCFFA5
:100750002671BFF35F8F0834AC42E3D3F1E7C046A4
:10076000380200204002002040BF002000217047D6
:10077000F0B5DE4657464E464546E0B585B0EFF348
:10078000058303221A40B14B91005B5803929846AF
:10079000012393401A000193AD4B02911A60082384
:1007A00043449946019BAB484363434608229B5E02
:1007B0009A46002B00DBB9E043469B881BB2002B16
:1007C00000DA26E143461B69EFF3108272B619681E
:1007D0000029FCD0BFF35F8F43469E88012341462A
:1007E0005B428B8036B20B69BFF35F8F00211960CB
:1007F00082F31088002E26DB43465D697400A4193D
:1008000008201A5EE40049462C19002A14DBA0686F
:100810009A468046E06807E0834200D181E00023E9
:10082000FA5E3900002A06DB5700BF18FF00EF19F7
:10083000FB688342F0DD53460E800021665E228015
:10084000002EDBDA984643460821595E002900DA7B
:10085000DFE043465A694B007E485B180299DB0093
:10086000D3180918826A9D68DC680B69AE1A9B1A56
:100870009E421BD30123026A039883401A4215D07B
:1008800043469B79002B16D1724800F001FB8C4245
:1008900004DC00D086E7854200D883E740BF05B07E
:1008A000F0BCBB46B246A946A046F0BD43460D612A
:1008B0009B79002BE8D000234246937143460822DF
:1008C0009A5E531CE0D0474648460026A846A346F9
:1008D00002E00800531C20D053007D699B18DB0008
:1008E000E9181400EA5E4B881BB2002BF1DA028093
:1008F0003B69EFF3108A72B61D002B68002BFCD009
:10090000BFF35F8F7B880B803B697C80BFF35F8F79
:100910001E608AF31088531CDED145465C46B846FB
:10092000B2E7BB68434500D879E784E7424652699D
:100930005B0093465344DB009B445B469E68DF6844
:1009400000F0A6FA8F422ADC30D05B465A461B697B
:100950005469022B32D041460820085E52880004B8
:1009600021001043984704000D0023002B432ED094
:10097000002D48DA30003900001BA9415B46986021
:10098000D96000229B5E002B09DB42465E00546961
:10099000F218D200A2189768D2688A425CDD4346FA
:1009A0009B881BB2002B00DA4DE70BE78642F6D896
:1009B0005B465A461B695469022BCCD1200023693F
:1009C0009847002803D030CC23002B43D0D15B467E
:1009D00042461B8813811269EFF3108372B61168C7
:1009E0000029FCD0BFF35F8F4246594652880A80E7
:1009F0004246514651801269BFF35F8F002111605A
:100A000083F31088CBE7134800F042FA00196941DC
:100A1000B4E7104C200000F03BFA802200231206BD
:100A200080185941029AA56A12191369461B5B1B6B
:100A30009E4201D2106131E70123039D246AAB403D
:100A40001C4200D02AE7106128E7C04600060020BB
:100A50003C700540004005408A4201D187429ED843
:100A600045462B81083505E05E00F218D200A21839
:100A70009768D2688A4206DC0AD0F318DB00E518D2
:100A8000E35E002BF0DA5A46138053462B8086E74C
:100A90008742F2D9F7E7C04670B52B4C2569002D87
:100AA00000D070BD294E0321284800F0E7F9E66028
:100AB000FFF778FC264B0322C018D02322701B06B8
:100AC0001B6801216370234B8000A3600F2320610A
:100AD0000220638063694942A1801980023119862E
:100AE00047311D83585218315A5275325C39995228
:100AF00018320131995218320131995218320131AC
:100B00009952083518329D520231183299521832D2
:100B100001319952183201319952183201319952EA
:100B20001832013199521832013199520A4B0B494E
:100B3000DC6001303562FFF785FC01210320FFF7FF
:100B40006FFC074B1D60ACE7E4010020004005404E
:100B500040000034FFFF1000000600207107001065
:100B60003860054070B582B00092019301000269BF
:100B7000EFF3108472B61368002BFCD0BFF35F8FC5
:100B80000223C85E0D6900283FDB4A694300160056
:100B90001B18DB00D218F35A4B80BFF35F8F002382
:100BA0002B6084F31088069B1361079B5361009BA5
:100BB000019C9360D460538801335B045B0C1D1C63
:100BC000002B20D0ACB20304558023430D69EFF312
:100BD000108C72B62C68002CFCD0BFF35F8F8C8811
:100BE000148088800A69BFF35F8F002010608CF347
:100BF00010880A7801309040CA680849521810607D
:100C0000180002B070BD0125DCE7BFF35F8F002341
:100C10002B6084F31088013BF2E7C0463C200000C3
:100C200010B543890A1493421ADD53009B18426998
:100C3000DB00D3180469EFF3108C72B62268002A27
:100C4000FCD0BFF35F8F5A88090494B2090C8A4222
:100C500008D00369BFF35F8F00221A608CF31088FD
:100C6000002010BD094A22435A8001230269837182
:100C7000BFF35F8F002111608CF310880278044964
:100C80009340C268012052181360EAE70080FFFF1A
:100C90003C200000F0B583B0040000F001F9FA2216
:100CA00006000F00200000230021920000F022FD2A
:100CB0008019794104000D1E02DA0124234D64429B
:100CC00006267642F71736196F41AF4212D80FD079
:100CD00000F0E6F832003B00121A8B41002B13DCC7
:100CE000002B30D02000290000F01AF903B0F0BD2D
:100CF000A642EDD90026002700F0D2F832003B00D2
:100D0000121A8B41002BEBDD00F0CAF832003B00D9
:100D1000121A8B41002B0ADB002301930C4B32008B
:100D200000930C483B00FFF71DFF0130DAD039007B
:100D3000094A536A994204D8906AB042D2D2994281
:100D4000D0D120BFF5E7002ACCD0DDE7FFFFFF7F41
:100D500069070010E401002000400540F0B5CE46D0
:100D6000474680B504000D0085B0EFF3058689463F
:100D7000002E10D03E4900204B6AAB4206D38A6A4F
:100D80005B1B591E8B41A2424041184305B0C0BCB9
:100D9000B946B046F0BD374FFB683A789846180020
:100DA000039200F075F8039A131D42469B009B586E
:100DB00022001B1A9C462B00121A8B419E421ADC01
:100DC00017D02B4B5A6A4A4505D39B6A0120A34290
:100DD000DCD24A45DAD120BF254B586A48453CD37E
:100DE000401B9A6A431E98410023A2425B4118436C
:100DF000CCE79445E5D900F053F822002B00121AF5
:100E00008B41002B25DB002301931B4B2200009319
:100E100038002B00FFF7A6FE00281ADD144B5A6A93
:100E20004A4504D39B6AA34202D24A4500D120BF5F
:100E300001003800FFF7F4FE0D4A0020536A4B45CD
:100E4000A4D3926A5B1B591E8B41A24240411843B6
:100E50009CE7074A536A4B4501D2002096E70020E1
:100E6000926A5B1BA24240415A1E934118438DE790
:100E700000400540E40100206907001010B5024A57
:100E80000248FFF767FA10BDE81E0010C8050020F1
:100E90000300416A0A00986A596A8A42FAD1704787
:100EA000034B596A0A00986A596A9142FAD170470D
:100EB0000040054070B505000E00184A536A19003D
:100EC000946A536A8B42FAD1200019002C00350035
:100ED00024184D41AB4216D813D0104B2A005B6A40
:100EE0009D4203D90D494B6A9342FCD3934207D1EB
:100EF0000A4A02E0516A994202D1916AA142F9D3A9
:100F000070BDA042E9D9054B5B6A1C005A1CEFD0AA
:100F1000012201246442E5175242E3E70040054004
:100F2000064A536A9942FCD807D1044B02E05A6A38
:100F3000914202D19A6A9042F9D870470040054028
:100F4000F8B5040006200D0000F06EF9002843D02B
:100F5000364B3749E3185A1E934180225B429B0D62
:100F600012049B059B18334A1360334A1360180020
:100F70000A689043FBD12D4B304AE31859424B414C
:100F800080215B0049000620995200F04DF92900AC
:100F9000C00000F021FB0130C3091ED1402701220F
:100FA0006262A362266BF30722D4E36A244B062015
:100FB000E51800232B60266300F036F93900800025
:100FC00000F00AFB7023E26A5A400E3313402B6094
:100FD0001C4B23630323A364F8BD1B4A93421DD912
:100FE00000231A4A1A4F6262A362266BF307DCD50C
:100FF000184B144AE3181A60656AA36A0620AD010B
:10100000ED1800F011F9144900F0E6FA0100A80209
:1010100000F0E2FA0021FFF74DFFC6E740069A0113
:10102000800E17181A000300BAE7C0460080FCBF04
:1010300008C0004000E0004000F00040140600201E
:101040002C10000001030000FEFF0000FFFF000065
:10105000C0FF3F00303000004E0E0000F8B5DE4605
:101060004E4645465746E0B505008B4618000A999E
:10107000914600F0B1FA0A9B6C001E026419304BD5
:10108000A400E418636880469E4200D966602F1F62
:10109000FBB29A46012B2FD9C0238022294FAD00E5
:1010A0009B0179591201E3181A6000291BD14B46A4
:1010B00022685B015340E022134080225201A218B3
:1010C00013605346012B2FD9802380229B01E31804
:1010D00012011A60434666607B51F0BCBB46B246C3
:1010E000A946A046F8BD786900F076FA01304300C1
:1010F0001B18033BFDD2DAE75B46012BCCD1C023A2
:1011000003229B01E3181A60023AA3681A42FCD03A
:101110004A46236852015A40E0231340802252017C
:10112000A218084F1360AD005846032321684140C0
:101130000B40136001228240A3681A42FCD0C3E72F
:1011400000800040CC050020F0B5D6464F4646460C
:10115000440098462418324BA400E41863688A4679
:101160009146C0B5FF2B02D880235B006360061F49
:10117000F6B2012E2FD9C02380222A4F85009B0171
:1011800079591201E3181A6000291BD14B462268D5
:101190005B015340E022134080225201A2181360E9
:1011A000012E30D9802380229B01E31812011A609E
:1011B00080235B00636043467B51E0BCBA46B14686
:1011C000A846F0BD786900F007FA013043001B180B
:1011D000033BFDD2DAE75346012BCCD1C0230322D7
:1011E0009B01E3181A60023AA3681A42FCD04A46EF
:1011F000236852015A40E023134080225201A21872
:10120000084F1360850050460323216841400B407E
:10121000136001228240A3681A42FCD0C2E7C04694
:1012200000800040CC050020014B8000C058704772
:10123000CC050020F0B5C646040000B523481600D2
:1012400098460D0000F0C8F90100300000F0C4F924
:101250004346069A1B04120313439C462368060068
:10126000002B22DB1A4B1B48E218531E9A418023A5
:101270005242120B9B011203D218174B1A60174BE4
:101280001A60130001688B43FBD12122144B2560A7
:10129000E318A6601A602268002AFCDA6246E2605F
:1012A00008221A6080BCB846F0BD3F232268134074
:1012B000AB42D7D1A3681B051B0D8342D2D1EE22CE
:1012C000E368D20213406345CCD1EBE7001BB700C3
:1012D0000040FDBF08C0004000E0004000F00040BA
:1012E000043000008023024A9B000B43D362704706
:1012F00000800540002310B50100988A1B8B984799
:1013000010BDC046162310B5010018885B889847A9
:1013100010BDC046F8B54746CE4680B50F1E18D062
:1013200014239946043304000025012698464B46B1
:101330001888434621681B88984701C4431E98417A
:1013400001350640AF42F2D13000C0BCB946B046CC
:10135000F8BD0126F8E7C046AA23064A1B01136020
:101360008D235B00D3600449044B19605368002B44
:10137000FCDA70470040024000B0FA000060024012
:101380007047C04610B50148FEF7CCFF0C1F001097
:1013900070B5074D074EB54209D20024013E761BB9
:1013A000B608013608CD01349847B442FAD170BD71
:1013B000701D0010AC1D0010054B064A06491A604E
:1013C000064A074B1A6010000B689843FBD1704720
:1013D00000E00040BFCDFBFE08C00040FE7F3C00A7
:1013E00000F00040044BDB6C002B03D18022034B48
:1013F000D2021A607047C046000011504C201150B4
:10140000044A054B1A60054A1368DB018033FBD19F
:101410007047C046FFFFFF0100F0004008C00040D9
:101420004022034B9A675A671A67DA667047C046CC
:1014300000F0014010B5FEF7C1FF10BD70B527499F
:10144000274E284D761AB4082200302C00D93022BD
:101450002800920000F0BAF92F2C3BD823002A3B39
:10146000214A052B1BD93020AE197107001B26001D
:10147000CB0F002902DAA1006A50661CC01AE318DB
:101480009B004108EB18C900C9181A605A6008335C
:101490008B42FAD1012303421CD098438419A30044
:1014A000EA50631C2F2C15D09B00EA50A31C2E2C55
:1014B00010D09B00EA50E31C2D2C0BD09B00EA506F
:1014C000231D2C2C06D09B00EA50631D2B2C01D031
:1014D0009B00EA50054B9D6070BDC04600010010A6
:1014E000C001001000000020C101001000ED00E06C
:1014F000002310B5294C82B0A367FFF72DFF01220E
:10150000274B1A60636C012BFCD10322254B1A6018
:10151000224A936B012BFCD1013300930121224A13
:1015200022480433FFF786FE052301210093204A59
:101530002048FFF77FFE0022022104201E4BFFF708
:1015400003FE0022012105201C4BFFF7FDFD0022B8
:10155000002107201A4BFFF7F7FD00220021082089
:10156000174BFFF7F1FD8023DB00009300220021E1
:101570000920134BFFF772FD0022104B00210620BB
:10158000FFF7E2FD0420FFF74FFE0E4900F024F8BC
:1015900001000020FFF7A6FE02B010BD0080004051
:1015A0003CB0004030B00040002F6859008002403D
:1015B000008C864700C00240001BB70040597307EB
:1015C000006CDC0240420F0001480421014B184727
:1015D0000002002015130010114A936F9B0813D2CC
:1015E00010665166002905D0FFE7FFE7FFE7516F5E
:1015F000106F704704B5002801D00020C04300F0F0
:10160000A7FB002104BDC046F0B5146E556E576FA0
:10161000166FFFF7E5FF1466556657671667F0BD4E
:10162000000000D0132370B51D78012D19D014DDF2
:101630001F48FFF767FE06001E48FFF763FE1E4CBB
:1016400080223100200000F0C1F8022D2DD01B486F
:10165000FFF750FE1A4B186070BD1A4B164CA3646E
:10166000F5E7184B144C23606360A360E3602361CB
:101670006361A361E36123626362A362E362236344
:101680006363A363E36323646364A364E364236524
:101690006365A365E36523666366A366E366236704
:1016A0006367A367E367A364D1E7064BA364CEE750
:1016B0005344000053460000C00300204C33000098
:1016C00010060020C916001007B5604601880A0AF6
:1016D0000230DF2AFAD1C9B2820804D302884088D6
:1016E0000004104300E00068014A5050039007BD19
:1016F000C003002051434343C9188C46110C83B2E8
:101700004B4310B4040C614392B280B25043624325
:101710001C041B0C001910BC59411304120CC018F6
:101720005141614470470000132310B51C781348E1
:10173000FFF7E8FD012C0BD004DD010080221048EA
:1017400000F044F80F48FFF7D5FD0F4B186010BDAF
:101750000B4C01005422200000F038F80B4B63655D
:10176000A365E36523666366A366E3662367636731
:10177000A367E3672362E361E4E7C04653460000E2
:10178000C00400204C330000100600209117001008
:1017900007B5604601880A0A0230DF2AFAD1C9B2C9
:1017A000820804D3028840880004104300E00068E7
:1017B000014A5050039007BDC00400200148042195
:1017C000014B18471002002015130010014B5B68F5
:1017D000184700001002002010B5002800D110BDED
:1017E00000F020F9FBE7C04610B5094A0300146871
:1017F00084B0002C08D0012200910648524203A96F
:10180000A047012004B010BD00F056F90020F9E710
:10181000FC050020D917001000BEFDE77047C04648
:1018200010B5FFF7F9FFC04670B5FFF7B1FD074DE2
:10183000074EB54209D20024013E761BB608013698
:1018400008CD01349847B442FAD170BDAC1D0010E8
:10185000AC1D0010030010B5080011001B6898476C
:1018600010BDC046F8B5437D07000D001600002BE3
:1018700038D0002A1ADD0B780A2B18D00020012E50
:1018800009D0012421006B5C01340A2B1AD0B44228
:10189000F8D1864203DD311A3B6828189847AD1904
:1018A000013D2B780D3B5A4253413B75F8BD037DFA
:1018B000002BE3D102210E483B689847012EEED061
:1018C0000120DEE76B1E5B5C0D2BE0D0884203DA63
:1018D000091A3B6828189847054802213B68984731
:1018E0002000D4E70368110028009847DEE7C046CF
:1018F000E01F0010F0B54646D6464F46C0B582B050
:1019000090461C0006000D00FFF7CAFA00232F4A7C
:1019100012184B41002B02DA01222D4B52422D4965
:1019200008008A4600F00CFA81466B1C03D1300097
:1019300000F0D4F90500002C27D0274F274B1C6856
:10194000002C18D04346002B21D1254B984602E0AD
:101950002469002C0FD02368002BF9D043461B6864
:10196000002B01D09C42F3D120002A003100B8475F
:101970002469002CEFD14B46002B23D1280002B064
:10198000E0BCBA46B146A846F0BD164FD6E7144BA8
:10199000984602E02469002CEDD02368002BF9D092
:1019A00043461B68002B01D0A342F3D12A0031002B
:1019B0002000B8476B460A222000DA71D91D093A87
:1019C000B847E7E7504600F0CBF9D7E740420F00B1
:1019D000FFFFFF7F3802002065180010F40500208B
:1019E000F8050020551800100A4A1368002B05D18D
:1019F0000CE01A001B691032002B07D08342F8D18B
:101A0000002902D118691060196170470029FCD0C3
:101A10001060FAE7F405002010B500F037F9012056
:101A200010BDC046F0B5CE46474680B583B06B4684
:101A30000600DD1D2870FFF733FA0023194A12183B
:101A40004B41002B02DA0122174B52421749080082
:101A5000894600F075F9164B80461C68002C14D09E
:101A6000144F02E02469002C0FD02368002BF9D01A
:101A70003B68002B01D09C42F4D1200001222900B8
:101A8000FFF7F0FE2469002CEFD14346002B05D16F
:101A9000300003B0C0BCB946B046F0BD484600F0C7
:101AA0005FF9F5E740420F00FFFFFF7F380200209B
:101AB000F4050020F805002070B5040000F00EF9D0
:101AC00001230100050001222000FFF713FF084B4E
:101AD0001C68002C06D06368002B05D09847246949
:101AE000002CF8D1280070BD2469002CF3D1F9E74F
:101AF000F4050020F0B5002915DD0E4B0D271A68FE
:101B00000D4B0E4CD3185D426B41451820215B00F4
:101B10001E5F0478A64207D093691942FCD10130B8
:101B20001460A842F5D1F0BD93691942FCD1176049
:101B3000F2E7C046180600200080FCBF1406002013
:101B40001F4B30B51B680D1E9C462ADD441E10211C
:101B500000201C4B1A689369194214D10130936913
:101B60001942FCD1136823548542F4D16346002BFB
:101B700007D050239363516B183B0B401249521806
:101B80001360280030BD6346002B07D050239363B9
:101B9000516B183B0B400C49521813600028F1D1CF
:101BA0000BE0002B09D05022064B1B689A63596B3F
:101BB000183A0A4004495B181A6003204042E1E7E2
:101BC000C00500201806002034100000064B10B598
:101BD0001B68002B06D00021044A12689163044A56
:101BE0001068984710BDC046C005002018060020A8
:101BF000C40500200822034B19688B691A42FCD1E6
:101C00007047C0461806002070B51A4E1A4B32684D
:101C10000400D31858424341184D143318002B6860
:101C2000002C02D0002B0FD070BD002BFCD0060082
:101C300000219463FEF7F4FB30001149FEF72CFC01
:101C4000104B2C601C60EFE72C6004000D4B1960FA
:101C50000B49FEF7F7FB01212000FEF7E1FB5022C4
:101C600033689A63596B183A0A4007495B181A603F
:101C7000DAE7C046180600200080FCBFC00500203F
:101C8000CD1B0010C4050020341000000D4B10B512
:101C90001B780D4B0D4C1B780D4B02211B780D4B07
:101CA00000202360FEF726FB02210120FEF722FB25
:101CB000E12120684902FFF743F901210648FFF7B7
:101CC00093FE10BD242000102020001018060020D4
:101CD0001C20001000400340200200200300844626
:101CE0009B070BD00300032102E001330B4206D017
:101CF0001A78002AF9D16246981A704703001968C9
:101D00000C4A0D488A188A4302420FD15968094A81
:101D100004338A188A43024208D15968054A0433B9
:101D20008A188A430242F1D000E001331A78002A6F
:101D3000FBD1E0E7FFFEFEFE808080800000000017
:101D400001B40248844601BC604700BFC1000020C6
:101D500001B40248844601BC604700BF81010020F5
:101D600001B40248844601BC604700BF590100200D
:101D7000B9130010E5130010C9150010BD170010AD
:101D80002516001029170010F1140010011400107E
:101D90002114001035140010190700103D14001014
:0C1DA000990A001081130010D9030010F4
:101DAC000A3D3D3D3D3D3D3D3D3D3D3D3D3D3D3D8A
:101DBC003D3D3D3D3D3D3D3D3D3D3D3D3D3D3D3D47
:101DCC003D3D3D3D3D00000020205250323335302A
:101DDC002072746C5F746370204144532D42205305
:101DEC0065727665720000003D3D3D3D3D3D3D3DDB
:101DFC003D3D3D3D3D3D3D3D3D3D3D3D3D3D3D3D07
:101E0C003D3D3D3D3D3D3D3D3D3D3D3D00000000EA
:101E1C005B494E49545D205374617274696E672E30
:101E2C002E2E00005B494E49545D2044756D6D7932
:101E3C0020495120646174612067656E657261741C
:101E4C00656400005B5443505D20496E69746961A0
:101E5C006C697A696E672072746C5F74637020733E
:101E6C006572766572206F6E20706F7274203132DD
:101E7C00333400005B5443505D20536572766572B9
:101E8C00206C697374656E696E67206F6E20706F5D
:101E9C0072742031323334005B4D41494E5D204524
:101EAC006E746572696E67206D61696E206C6F6F00
:101EBC00702E2E2E000000005B4C4F4F505D2052B8
:101ECC00756E6E696E672E2E2E0000000A2A2A2A65
:101EDC002050414E4943202A2A2A0A004861726444
:101EEC007761726520616C61726D20256420616C74
:101EFC00726561647920636C61696D6564000000D2
:101F0C0048617264206173736572740052656C650C
:101F1C0061736500626F6F74325F77323571303880
:101F2C0030000000322E332E310000007069636FD8
:101F3C0000000000616473625F72746C7463705FA4
:101F4C0073657276657200005365702020392032FB
:101F5C00303236005541525420737464696E00005F
:101F6C0055415254207374646F757400554152542A
:101F7C0020737464696E202F207374646F75740001
:101F8C0006005250D3F07542181F00100600525034
:101F9C00E182887F201F001006005250ABB36053C3
:101FAC00301F001006005250BBFF3CB6381F00100B
:101FBC0006005250861C0302401F001006005250AF
:101FCC005422A29D541F001005005250DE65F46887
:101FDC00A82100100D0A00000600525053B4F4A1C1
:101FEC00781F0010080052501200000008005250D8
:041FFC00921000003F
:102000008C1F0010981F0010A41F0010B01F00109C
:10201000BC1F0010C81F0010D41F0010F81F0010B4
:08202000F01F0010E41F001086
:10202800F0B5C646160000B504001F000268EFF3BD
:10203800108172B61368002BFCD0BFF35F8F0423A6
:10204800E3562268002B2BDBBFF35F8F0020106064
:1020580081F31088D02212061278002552B29046D9
:102068009A420ED1002080BCB846F0BDBFF35F8F06
:10207800156081F310883000390000F035F8002829
:10208800F0D12268EFF3108172B61368002BFCD0F0
:10209800BFF35F8F237922687F2BE7D9434602E09D
:1020A800D0231B061B682371BFF35F8F00231360C7
:1020B80081F310880120D6E70268EFF3108172B629
:1020C8001368002BFCD0BFF35F8FFF2303710368F5
:1020D800BFF35F8F00221A6081F3108840BF7047FA
:1020E8007047C0460000000001B40248844601BCA5
:1020F800604700BF5D0D00101000000000000000E8
:1021080000000100000000000000000000000200C4
:1021180000000000000000000000030000000000B4
:10212800000000000000FF000000000001B5486842
:1021380001318E460047704609380149884701BD7C
:10214800550600100000000000000000000000001C
:102158000000000000000000400200200000000015
:10216800503300004C330000543300005233000059
:102178004D5300004D430000533400004334000029
:10218800F51A0010F51B0010411B0010091C001067
:102198000000000000010000000000000000000036
:04000005100001E9FD
:00000001FF
