:020000041000EA
:10000000002008205D0100101B0100101D010010E0
:100010001101001011010010110100101101001058
:100020001901001019010010190100101F01001022
:10003000110100101901001021010010230100100E
:100040001101001011010010110100101101001028
:100050001101001011010010110100101101001018
:100060001101001011010010110100101101001008
:1000700011010010110100101101001011010010F8
:1000800011010010110100101101001011010010E8
:1000900011010010110100101101001011010010D8
:1000A00011010010110100101101001011010010C8
:1000B00011010010110100101101001011010010B8
:1000C00011010010110100101101001011010010A8
:1000D0001101001011010010110100101101001098
:1000E0001101001011010010110100101101001088
:1000F0001101001011010010110100101101001078
:100100001101001011010010110100101101001067
:10011000EFF30580103800BE00BE00BE00BE00BE7A
:1001200000BE00BEF2EB88713C4D0110684D01101D
:10013000A001001090A31AE7D3DEFFFF42012110B7
:10014000FF010000F05A0100793512AB4FF00000BA
:100150001E49086006C881F3088810474FF05040D8
:10016000006810B14FF00000F2E70DA40ECC00299A
:1001700002D000F012F8F9E71549164A002000E015
:1001800001C19142FCD11449884714498847144958
:10019000884700BEFDE701C901C29A42FBD3704700
:1001A000684D011010010020D00F0020285C0110C4
:1001B0000000082000000820285C01100010082022
:1001C00000100820000000007047000008ED00E06B
:1001D000D00F0020E455032069780010750200104C
:1001E0002D780010F8B500BF0348044B834202D0BD
:1001F000034B03B118477047D00F0020D00F0020E9
:1002000000000000064B0749C91A891048BF013198
:10021000491003D0044B0BB101481847704700BF89
:10022000D00F0020D00F00200000000010B5064CB9
:10023000237843B9FFF7D8FF044B13B10448AFF359
:1002400000800123237010BD781100200000000001
:100250006439011008B5044B1BB104490448AFF3DD
:100260000080BDE80840CDE7000000007C110020C0
:10027000643901102DE9F04F8FB0BC480CAB0BAACC
:100280000AA905F059FB099018B9B849B84804F013
:1002900027F8DDE90B120A9805F08CFAB54B01221C
:1002A00000930021062005F09FF94FF4E131B24898
:1002B00005F018F90221002003F0D0FF02210120EF
:1002C00003F0CCFF012300224FF4E131AA4807F0EC
:1002D000D7FDC82004F00EFFA849A94807F0F2FC9A
:1002E000A84B40F2D241A84AA84807F0EBFC02F024
:1002F00091FC3C220021A6480EF01EFB04F09EF863
:10030000202203460821A24805F060F84FF440324D
:10031000A049A14802F006FC9F4800F053FE9F4808
:1003200007F022FE00F060FB9D4807F049FC04F056
:10033000FFFF4FF0FF346FF000429A4E4FF000097C
:10034000861941F10007B44272EB07033CBF264611
:100350001746B0468E4CDFF870B2DFF870A200F09E
:100360004FFB00F0B1FB012805467AD0B9F1000F30
:1003700006D000F087FE002840F09A80DDF8249037
:1003800000F0A2FB10B9814684F8250080480CA932
:1003900005F068F8054660B19DF83030F02B00F0AC
:1003A000D280F12B00F0C78000F08EFB022800F015
:1003B0000F8100F089FB022800F0A580012002F0E7
:1003C0003DFCDAF824309F42C9D8DAF828204245AB
:1003D00001D29F42C3D004F0ABFF4FF0FF326FF069
:1003E0000043704D10EB050841F10007424573EBE7
:1003F00007013CBF90461F4600F0A8FE06466A492A
:10040000226B0968DBF80050684B551B711A059286
:10041000A3FB0525A3FB01312A0B090B5E480892BB
:10042000079102F08BFB256A069000F095FEDDE94E
:100430000712CDE901504FF44030009094F82400A9
:10044000069B03905A4807F03DFC5749059A0E60F9
:10045000CBF8002000F0D4FA00F036FB0128054666
:1004600084D1544807F0ACFB01F09AFC064620B951
:1004700001F02CF9002840F0C6804F4807F0A0FB9F
:1004800000230120A362E36284F8253000F02AFBF8
:1004900094F82430002B3FF469AF02F095F800F097
:1004A000EFFD00F095FD00F0EDFD00283FF466AF94
:1004B00000F00AFB02287FF461AF404B1B78002B51
:1004C00000F0C680DAF824303D49D1E900129A42A2
:1004D0003FF654AFDAF82800884202D29A423FF43D
:1004E0004DAF0023354A3748137007F069FB00F021
:1004F000CFFD02F069F800F0C3FD274802F01AFBB7
:1005000000F066FD3AE794F8253083B194F8263080
:100510004BB194F8273033B1B9F1000F6FD00420FC
:1005200002F08CFB4DE7022002F088FB49E7052032
:1005300002F084FB45E700F0ABFD174802F0FAFA41
:100540004FF0000935E700F0BFFA02287FF431AF21
:1005500000F09EFD02F038F800F092FD0E4802F027
:10056000E9FAA94600F034FD23E700BFF049020094
:10057000F039011080D1F0080000074068390110FF
:100580007039011090D003008014F840A039011098
:10059000682403206824002078240320A12600106A
:1005A000C4390110404B4C00AC440320CDCCCCCC22
:1005B000743C0110243A01106C3A0110D555032007
:1005C00068110020AC3A0110A844032000000B4041
:1005D00094F82530002B3FF4ECAE00F061FD9DF85F
:1005E00030100D9D4B1E0D2B00F2C180DFE803F093
:1005F000515961697179858D959DA5AEB7470320E5
:1006000002F01CFBDDE65C4801F09EF95B4800F05F
:10061000C9FF304601F004F8284601F03DF94FF4D7
:10062000F87001F07FF801F051F803463046A362FC
:1006300001F064F8E062284684F8255000F052FA90
:1006400001F04AF8E26A01464D4807F03BFB1FE71C
:1006500004F06EFE4B4B4FF0FF32C0186FF00043BA
:1006600041F10001824273EB01053CBF104619467F
:10067000454B464AC3E90001012313707EE6294633
:10068000434807F01FFB284601F054FF00F016FD19
:100690008FE629463F4807F015FB284600F082FF09
:1006A000F4E729463C4807F00DFB284601F04CF9D9
:1006B000ECE72946394807F005FB284601F0ECF83D
:1006C000E4E72946364807F0FDFA284601F02AF803
:1006D000DCE72946334807F0F5FA284600F0A0FF8A
:1006E000D4E72E0C2DB231462A462F4807F0EAFAFD
:1006F0002946304601F0CEF8C8E729462B4807F0D6
:10070000E1FA284601F0F8F9C0E72946284807F041
:10071000D9FA284601F038FAB8E72946254807F003
:10072000D1FA284601F078FAB0E72946224807F0C6
:10073000C9FA284601F09EFEA8E729461F4807F09F
:10074000C1FA0021284601F0A3FE9FE729461C4874
:1007500007F0B8FA2946002001F09AFE96E72946EC
:10076000184807F0AFFA284601F034F88EE716482B
:1007700007F0A8FA8AE700BF90D003008014F84081
:10078000443A011020A1070068110020D55503202C
:100790003C3C0110D03A0110E43A0110003B01103A
:1007A0001C3B0110303B0110503B0110703B01100D
:1007B0008C3B0110A43B0110C43B0110E43B011031
:1007C000FC3B0110183C0110543C0110012210B4F4
:1007D000064C90F803C00649064B406884F800C0F8
:1007E0005DF8044B08601A70704700BFD7550320AE
:1007F000F0440320D65503202DE9F04104F098FD84
:100800004FF0FF356FF000421D4FC71941F1000452
:10081000BD4272EB040338BF2F461A4D38BF144651
:100820002B7853B1184EDFF87480736A9C4208D855
:10083000B26ABA4201D29C4203D02B787BB9BDE8A0
:10084000F08198F80030002BF7D00021084609F01D
:1008500003FA2B78002BE8D12B78002BEFD00B4834
:1008600007F0AEF90A4A0B4B1178187808F07CFFB4
:100870000023094A2B70136801331360BDE8F0812F
:10088000400D0300DF55032000000B40CC3C01105D
:10089000D9550320D8550320F4440320DC55032008
:1008A000002330B53E4D87B02B70C378FBB93D496E
:1008B000426804460B606AB93B4B1B7843B13B4B23
:1008C0001B7803F0FF021BB9394B1B78002B44D176
:1008D00007B030BD374B18680028EDD0364902F01C
:1008E00035F9364A616813680B441360E4E734480D
:1008F0002C4A0168022B01F101010160116801F12C
:100900000101116027D01368132B0CD92D491268EF
:100910002D4807F0D7F90020012223492B4B0870FE
:100920001A7007B030BD04F003FD4FF0FF346FF0D4
:10093000004210F5FA6041F10001844272EB0105BA
:100940003CBF204611460124214B224AC3E9000145
:10095000147007B030BD2049D9E74FF480531F49C8
:100960001F4809780078CDF80620CDF81220CDF880
:100970000220ADF816208DF800101A4A0E498DF8A5
:100980000100684603910492029308F07DFE10B1C5
:1009900001232B709CE70A4A13680133136097E721
:1009A000DF550320EC440320DD550320DE550320F2
:1009B000DC550320784503207C450320E8440320D0
:1009C000F4440320043D01100C3D0110DA550320CE
:1009D00070110020DB550320FC3C0110D85503208A
:1009E000D9550320A1080010022300B583B001A946
:1009F0000020ADF8043008F0BDFD03B05DF804FB45
:100A000010B500214FF0FF3086B009F025F9224BD8
:100A10001A78002A36D0214A21495468486A126857
:100A200084422FD8896A91422ED300211D4A197021
:100A300013783BB31C4B1B7823BB1C4C237803F06F
:100A4000FF02FBB91A4B1B78E3B14FF480531949ED
:100A5000194809780078CDF80620CDF81220CDF895
:100A60000220ADF816208DF80010144A14498DF8B4
:100A70000100684603910492029308F005FE30B12C
:100A80000123237006B010BD8442CED1FAE70D4A8F
:100A9000136801331360F5E7DB5503207011002064
:100AA00000000B40DD550320DE550320DF550320F9
:100AB000DC550320D8550320D9550320A108001088
:100AC0007C450320F4440320014B1878704700BF95
:100AD000DC55032000487047F84403200048704765
:100AE00038450320034B1A7812B10130C0B2187098
:100AF000704700BFDC550320F0B50546734C744EBB
:100B000085B02246314608F007FD284627883688FA
:100B100008F022FD6F4C704B3246002808BF1C467F
:100B200000946E4C3B4629466D4807F0CBF84FF4D5
:100B3000807322460021284609F000FC002840F07E
:100B4000A980628804F10A03B2F5807F94BFA118DE
:100B500004F58071994288BF04F1090205D893E039
:100B60001A44531C994240F28F801378012B40F2B3
:100B70008B805478052CF3D1D47804F00304022C34
:100B8000EED19078C009EBD093881068ADF80C30A6
:100B9000BDF80C109279C1F30A014B1E3F2B029055
:100BA0008DF80E2000F28280284602A909F09EFBF3
:100BB000002875D09DF80A204A4F4B4C4B4B002122
:100BC0002270384680221D700DF0B6FE802340F260
:100BD00009413A46284609F04FFC0023DFF814C1CA
:100BE0008CF80030C0B93E78012E15D9023E76103F
:100BF00067D038466146012202E00132402A5CD0CB
:100C000030F8023F802B28BF3F23964201F8013B7A
:100C1000F3D100230CF802308022002131480DF07E
:100C20008BFE802340F2094128462E4A09F0BCFC85
:100C300000232F4E3370B8B93D78012D14D9023DF1
:100C40006D1040D030460122264902E00132402A90
:100C500035D031F8023F802B28BF3F23954200F862
:100C6000013BF3D10023B3542178214B214A224880
:100C700007F028F800230121204C2148214A236055
:100C80000360117005B0F0BD1F4805B0BDE8F0402D
:100C900006F096BF1D4805B0BDE8F04006F090BFD5
:100CA0009DF80A101A4807F00DF8EBE7194807F00D
:100CB00009F84023ADF80C3076E73F22A9E73F2240
:100CC000D0E73246A5E72A46CCE700BFCC55032043
:100CD000CE5503205C3D0110543D0110101800203A
:100CE000603D01108C170020D9550320D8550320F2
:100CF00038450320F8440320443E0110E844032013
:100D0000F4440320DC550320CC3D01109C3D011030
:100D1000203E0110F83D011038B50146074806F0A5
:100D2000D1FF0023064C0749074A0848084D2370A5
:100D30002B700B700370137038BD00BF6C3E011038
:100D4000DD550320DF550320DC550320D855032053
:100D5000D95503202DE9F04FDFF85C9293B099F854
:100D60000070BDF874400092002F00F00481834FA2
:100D70009B463B78002B00F0FE80DFF840A2054642
:100D80009AF800300E4603F0FF0201924BB17C4B03
:100D90001A78002A40F0C1809AF80020002A40F01A
:100DA000C480402C00F2E78097F80080002D00F00E
:100DB0009480009BC022ADF8123000238DF81160A2
:100DC000CDE90633ADF814B0ADF816408DF810201B
:100DD0000B9306A8002C00F091806A4B0022099327
:100DE00004238DF81880DFF8D881674988F800203F
:100DF000664A0A91137004AB089308F037FF002885
:100E000000F0838004F094FA4FF0FF3E6FF0004C46
:100E10005F4BCDE9026BC01841F1000286457CEBC7
:100E200002033CBF704662468346164698F800307F
:100E300003F0FF01BBB9084608F00EFF554A536A9C
:100E40009E425DD8926A5A4501D29E4258D0DDE951
:100E5000026B009A31465B464F4806F033FF002193
:100E6000387808F081FC98F800301BB1474B1B78AC
:100E7000002B55D04FF0FF34019B53B39AF800304C
:100E80003BB300223E4B454D1A702B7803F0FF0216
:100E9000FBB999F80030E3B14FF4805340483978FA
:100EA0000078CDF83620CDF84220CDF83220ADF8CC
:100EB00046208DF830103B4A3B498DF831000CA894
:100EC000CDE90F120E9308F0DFFB00284ED001236E
:100ED0002B70204613B0BDE8F08F5CBB009BCDE9C2
:100EE0000644ADF8123040238DF81160ADF814B00F
:100EF000ADF816400B948DF8103006A800236DE76E
:100F000099F80030002B91D1ADE70146387808F010
:100F10002BFC264806F054FEACE70023019340E783
:100F200005B1ECB9224B1C68A6E701221A70FFF745
:100F300063FC36E722461C9912480EF09DFA4023C6
:100F40008DF81030009BCDE906558DF81160ADF895
:100F50001230ADF814B0ADF816400B9506A83CE77A
:100F600022461C9807490EF087FADBE7114A1368FE
:100F700001331360ADE74FF0FF34AAE7D8550320E3
:100F8000DE5503208C550320CD070010D7550320D4
:100F9000E093040000000B408C3E0110DF5503205D
:100FA000D9550320A10800107C450320C43E011040
:100FB000F0440320F4440320DC550320DD550320D6
:100FC000D6550320014B1860704700BF78450320B9
:100FD0001F4B1B78022B00D070471E4B1A78002A3B
:100FE000FAD0F0B5002301251B49DFF890C01B4F54
:100FF0001B4E1C481C4C8CF800303B703360037057
:101000000D70237887B003F0FF010BB107B0F0BD7E
:10101000164BCDF806101B78CDF812108DF8003065
:101020004FF48053CDF80210ADF816108DF8012062
:101030000F49104A684603910492029308F024FB7A
:1010400008B12570E2E70C4A13682B441360DDE712
:10105000DC550320D9550320DD550320DA55032044
:10106000EC440320DB550320DF550320D855032033
:101070007C450320A1080010F4440320DE55032022
:1010800007F07AB9014B1878704700BFDA55032092
:101090000022024B1A70FFF7AFBB00BFDD550320E3
:1010A000044B1B7803B970470122034B1A70FFF7FA
:1010B000A3BB00BFDD550320DE5503201A4B1B7870
:1010C00073B1002210B5194B194C1A70237886B0F1
:1010D00003F0FF0213B9174B1B7813B906B010BD0C
:1010E00070474FF480531449144809780078CDF8BC
:1010F0000620CDF81220CDF80220ADF816208DF88C
:1011000000100F4A0F498DF80100684603910492C0
:10111000029308F0B9FA10B101232370DEE70A4AFE
:10112000136801331360D9E7DD550320DE55032032
:10113000DF550320DC550320D8550320D955032063
:10114000A10800107C450320F4440320014B1868DB
:10115000704700BFE8440320014B1868704700BF88
:10116000F444032030B51446000200F47F40012C03
:1011700040F02002C8B20CBF03460B0A002185B024
:1011800002ADCDE900548DF808308DF80900112327
:101190000846FFF7DFFD051E13DB0120002103AB2E
:1011A0004FF49072009301900A23ADF80C10FFF7F2
:1011B000D1FD021E0BDB601B18BF4FF0FF3005B0E6
:1011C00030BD2A460749084806F07CFDE5E7074997
:1011D000054806F077FD601B18BF4FF0FF3005B0E3
:1011E00030BD00BF3C470110E43E01102447011010
:1011F0002DE9F04104F0F2FE0022254B04F068FED8
:10120000DFF894800446D8F860000D4604F0D4FE60
:101210001DA3D3E9002304F081FE00221D4B04F03E
:101220002FFE0646D8F804000F4604F0D7FE02460B
:101230000B463046394604F04BFE04F0F3FE04F052
:10124000CDFE0B4602462946204604F067FE01F11A
:10125000004104F0D5FE05460122C5F305411920E1
:10126000FFF780FFC5F30721044601221A20FFF78C
:1012700079FF03460122E9B21B201C43FFF772FFEE
:101280002043BDE8F08100BF0000000080842E41B3
:10129000000050410000F03F7C1B002030B50C46A0
:1012A0004FF0000C0021012585B00202E0B202AB34
:1012B00060F3070C02F47F4260F30F2C00930846A2
:1012C0001023019542F02002ADF808C0FFF742FD5F
:1012D000041E13DB0120002103AA00920A234FF40D
:1012E00090720190ADF80C10FFF734FD021E0BDB7D
:1012F000601E18BF4FF0FF3005B030BD22460749D1
:10130000074806F0DFFCE5E70649054806F0DAFC89
:10131000601E18BF4FF0FF3005B030BD3C470110D4
:10132000E43E01102447011070B54FF0000C012677
:1013300084B003AC06FA00F543F201023046019690
:101340004FF400730E4600946146ADF80CC0FFF7F1
:1013500001FD021EEDB21EDBBDF80C00C6B1284334
:101360004FF0000500210126C0B260F3070543F2EB
:10137000010260F30F254FF40473084600940196B0
:10138000ADF80C50FFF7E6FC021E09DB04B070BD9F
:1013900020EA0500E4E70549054806F093FCDBE791
:1013A0000449034806F08EFC04B070BD6847011084
:1013B000E43E01105447011070B50126002184B0AD
:1013C00003AD43F2040206FA00F44FF40073304612
:1013D00000950196ADF80C10FFF7BCFC021EE4B2BC
:1013E00041DB4FF0000C00210126BDF80C0043F258
:1013F000040220EA0400C0B260F3070C60F30F2C73
:101400004FF40473084600950196ADF80CC0FFF741
:10141000A1FC021E37DB0120002143F203024FF43E
:10142000007300950190ADF80C10FFF793FC021EBD
:1014300024DB4FF0000C012000219DF80C3043F21A
:1014400003021C4364F3070C64F30F2C01904FF468
:10145000047308460095ADF80CC0FFF77BFC021E34
:1014600006DB04B070BD0A490A4806F02BFCB8E759
:101470000949084806F026FC04B070BD0449054837
:1014800006F020FCD5E70449024806F01BFCC2E741
:1014900068470110E43E01105447011038B50C466E
:1014A0001546FFF717FB21460DF098FA08B100200A
:1014B00038BDFFF713FB29460DF090FAB0FA80F023
:1014C000400938BD184610B58C461446002182B03C
:1014D000C0B201904FF4C263624608460094FFF721
:1014E00039FC02B010BD00BF30B51C468C46154615
:1014F00083B0E4B24FF4C06300216246CDE90054EA
:101500000120FFF727FC03B030BD00BF70B5CCB29F
:1015100084B020461646FFF74FFF0120002103AD9F
:1015200043F201024FF40073CDE9005000FA04F4D5
:10153000ADF80C10FFF70EFC021EE4B21FDBBDF885
:101540000C00CEB120434FF0000400210126C0B2B0
:1015500060F3070443F2010260F30F244FF40473B5
:10156000084600950196ADF80C40FFF7F3FB021E0C
:101570000ADB002004B070BD20EA0400E3E706495E
:10158000064806F09FFBDAE70549044806F09AFB97
:10159000002004B070BD00BF68470110E43E011098
:1015A0005447011070B51D4ED6F8E03063B3B36CEC
:1015B000044653B996F84C30053B012B0CD94FF03B
:1015C000FF3500247465284670BDFFF711FE0546FF
:1015D000002D18BF0024F5E7012218211046FFF75F
:1015E000C1FD96F84C30F16D053B012BA4EB0101D8
:1015F0000DD806F17C0002F0B7F801220546102153
:101600001046FFF7AFFDE3E74FF0FF35DBE70122C0
:1016100010211046FFF7A6FDD1E700BF7C1B00207C
:10162000F8B5274C226E824243D0034640422366DF
:1016300004F0C2FC0022234B04F04AFC1EA3D3E9B1
:10164000002304F06BFC04F0DBFC06460122F1B23F
:101650003F20FFF787FD36B20122C6F3052105467C
:101660003E20FFF77FFD0346206E1D4304F0A4FCDF
:1016700011A3D3E9002304F051FC0022124B04F023
:10168000FFFB0646206D0F4604F0A8FC0B46024601
:101690003946304604F01CFC04F0C4FC636DE0667F
:1016A0000BB92846F8BD1846FFF77CFF05432846CE
:1016B000F8BD6FF00105F4E70000000080842E41C2
:1016C0007C1B0020000070410000F03F014B93F8AC
:1016D0004C0070477C1B0020054B93F84C30013BBD
:1016E000DBB2052B9ABF034A52F823000248704729
:1016F0007C1B00200C470110F83E011008B5074B79
:1017000093F84C30053B012B01D9002008BD18B1DE
:10171000742203490DF0B0FE1D2008BD7C1B002083
:1017200078470110F0B5274D85B095F84C30053B52
:10173000012B41D80122044618211046FFF712FD63
:1017400095F84C30053B012B39D82246012105F193
:101750007C0001F09BFD064641F2100000210127AC
:1017600002AB4FF490720093ADF8080011230846C5
:101770000197FFF7EFFA021E14DB0120002103ABF3
:101780004FF49072009301900A23ADF80C10FFF70C
:10179000E1FA021E0BDB002E18BF00246C663046F7
:1017A00005B0F0BD0849094806F08CFAE5E708499C
:1017B000064806F087FAEEE74FF0FF36EFE74FF006
:1017C000FF36C9E77C1B00203C470110E43E0110B6
:1017D00024470110F0B52A4C85B094F84C30053BF5
:1017E000012B46D81C2828BF1C200122254B18217C
:1017F00053F820601046FFF7B5FC94F84C30053BD9
:10180000012B39D83246012104F17C0001F03EFD64
:10181000054641F210000021012702AB4FF49072FF
:101820000093ADF80800112308460197FFF792FADC
:10183000021E14DB0120002103AB4FF490720093D1
:1018400001900A23ADF80C10FFF784FA021E0BDB9F
:10185000002D18BF00266666284605B0F0BD0A496F
:101860000A4806F02FFAE5E70949084806F02AFA7F
:10187000EEE74FF0FF35EFE74FF0FF35C9E700BF68
:101880007C1B0020784701103C470110E43E01100A
:10189000244701100020704770B5254D84B095F89D
:1018A0004C30053B012B3CD800210446012641F673
:1018B000180002AB4FF490720093ADF808001123AA
:1018C00008460196FFF746FA021E20DB01200021A0
:1018D00003AB4FF49072009301900A23ADF80C1003
:1018E000FFF738FA021E17DB95F84C30053B012B49
:1018F0001AD8214600220F4801F0C8FC04460122F4
:1019000010211046FFF72EFC204604B070BD0A4996
:101910000A4806F0D7F9D9E70949084806F0D2F98C
:10192000E2E74FF0FF34EFE74FF0FF34E7E700BFA7
:101930007C1B0020F81B00203C470110E43E0110F6
:101940002447011000000000A0F55B332DE9F047AB
:1019500004466FF43A70604A0344934200F2B08048
:101960006FF478715D4AA4F592230B44934240F2E0
:10197000A780DFF880A1DAF8040004F02FFB002232
:10198000574B04F0A5FA80462046894604F026FB12
:1019900006460F4632463B464046494604F0BEFAEC
:1019A00004F040FB20F0704525F00305680000F0CE
:1019B0008050284304F012FB02460B46404649463D
:1019C00004F0ACFA8946804604F02CFB42460446FB
:1019D0004B463046394604F049FB002841D09AF87E
:1019E0004C30CAF80040053B012B45D9290C022296
:1019F0009F20FFF7B7FB0222A9B20446A120FFF700
:101A0000B1FBDAF860300443584204F0D5FA002202
:101A1000344B04F05DFA2EA3D3E9002304F07EFAE0
:101A200004F0EEFA05460122E9B23F20FFF79AFBE7
:101A300003462DB2C5F3052101221D463E20FFF7C6
:101A400091FB01222C43142104431046FFF78AFB2B
:101A50000122044310211046FFF784FB2043BDE818
:101A6000F0872146204806F02DF99AF84C30CAF844
:101A70000040053B012BB9D8012218211046FFF781
:101A800071FBDAF85810C1B19AF84C30053B012BC4
:101A90000DD8DAF80020154801F09EFD002806DB7D
:101AA000FFF7A6FB18B9DAF85400FFF77BFD012217
:101AB00010211046FFF756FB98E7DAF80010E3E72D
:101AC00021460B4806F0FEF86FF01500C7E700BF8F
:101AD0000000000080842E4117652D00BF270900FB
:101AE0000000504100007041243F0110F81B00200D
:101AF000003F01107C1B00200021884230B50CBF44
:101B00004FF0050C4FF0030C4FF00004012585B099
:101B100002AB6CF307046CF30F2400934FF4C9522B
:101B2000102308460195ADF80840FFF713F9041E8D
:101B300013DB0120002103AA00920A234FF49072C4
:101B40000190ADF80C10FFF705F9021E0BDB601ECB
:101B500018BF4FF0FF3005B030BD22460749084896
:101B600006F0B0F8E5E70749054806F0ABF8601E57
:101B700018BF4FF0FF3005B030BD00BF3C4701102B
:101B8000E43E0110244701100021884230B50CBF0B
:101B90004FF0050C4FF0250C4FF00004012585B0E7
:101BA00002AB6CF307046CF30F2400934FF4C9529B
:101BB000102308460195ADF80840FFF7CBF8041E46
:101BC00013DB0120002103AA00920A234FF4907234
:101BD0000190ADF80C10FFF7BDF8021E0BDB601E84
:101BE00018BF4FF0FF3005B030BD22460749084806
:101BF00006F068F8E5E70749054806F063F8601E57
:101C000018BF4FF0FF3005B030BD00BF3C4701109A
:101C1000E43E0110244701102DE9F8435A4E0546D1
:101C200096F84C30053BDBB250B3012B46D900246B
:101C300001221A21B120FFF795FA03460122002163
:101C400015201C43FFF78EFA03464D2108201C4344
:101C5000FFF724FB0346022DB4BF8021902106200C
:101C60001C43FFF71BFB0346294648481C4306F06C
:101C700029F8706DB564FFF795FC2043BDE8F88343
:101C8000012B2BD907460020FFF7B2FACD210446DD
:101C90000820FFF703FB034601221B21B1203C4330
:101CA0001C43FFF75FFA044380210620FFF7F6FA92
:101CB000034637481C4305F083FFDAE70122182169
:101CC0001046FFF74FFA06F17C0001F097FF012262
:101CD000044610211046FFF745FAA9E70122182112
:101CE0001046FFF73FFA96F84C30306E062B15BFC2
:101CF000002202223423742386F8702086F868308C
:101D0000C6F8DC6004F058F91DA3D3E9002304F001
:101D100005F900221F4B04F0B3F88046306D894668
:101D200004F05CF902460B464046494604F0D0F800
:101D300004F078F901463046082206F1680340F8BD
:101D40007C3FC6E91D25F16601F0F4FF0122102158
:101D500007461046FFF706FA96F84C30053B012B74
:101D600091D80D48FFF744FA012204461146152088
:101D7000FFF7F8F904433C4396E700BFAFF3008058
:101D80000000000080842E417C1B0020483F011091
:101D9000783F01100000F03F50793600000000004D
:101DA0002DE9F043A04EA14D89B0E4220021304638
:101DB00006F108040CF0C0FD0FCD0FC40FCD0FC409
:101DC0000FCD0FC495E80F004FF0010984E80F0014
:101DD000002140F60918DFF858C203AFC6F804C066
:101DE0004FF400524FF488730846CDE90079ADF8FE
:101DF0000C80FEF7AFFF021EC0F2648200214FF498
:101E000000524FF488730846CDE90079ADF80C8094
:101E1000FEF7A0FF021EC0F2628200214FF40070A4
:101E2000022442F25812ADF80C004FF488730846B1
:101E300000970194FEF78EFF021EC0F25A82002125
:101E40004FF40470022442F24812ADF80C004FF433
:101E50008873084600970194FEF77CFF021EC0F2CB
:101E60004382002142F22220012443F20B02ADF80A
:101E70000C004FF40473084600970194FEF76AFFC4
:101E8000021EC0F2408200214EF6E80001244FF409
:101E90004052ADF80C004FF40473084600970194CB
:101EA000FEF758FF021EC0F22982012214211046BB
:101EB000FFF758F9012210211046FFF753F90122CC
:101EC00000211520FFF74EF9022200211620FFF70E
:101ED00049F916242046013401220021A4B2FFF75B
:101EE00041F91C2CF6D1B36803F18002FF2A00F2FD
:101EF000AC80F2688DF80C3002F18003FF2B00F209
:101F0000A48033698DF80D2003F18002FF2A00F2CE
:101F10009C8072698DF80E3002F18003FF2B00F275
:101F20009480B3698DF80F2003F18002FF2A00F23C
:101F30008C80F2698DF8103002F18003FF2B00F2E3
:101F40008480336A8DF8112003F18002FF2A7CD847
:101F5000726A8DF8123002F18003FF2B75D8B36AD4
:101F60008DF8132003F50061B1F5805FF26A6CD241
:101F700002F50061B1F5805F67D219118DF8141078
:101F8000C2F3032141EA0313316B8DF8162001F5EA
:101F90000062B2F5805F8DF81530736B55D203F592
:101FA0000062B2F5805F50D20A118DF81720C3F39A
:101FB000032242EA0112B16B8DF8182001F500628C
:101FC000B2F5805F8DF81930F36B3ED203F50062F5
:101FD000B2F5805F39D20A118DF81A20C3F30322BB
:101FE00042EA0112316C8DF81B2001F50062B2F556
:101FF000805F8DF81C30736C27D203F50062B2F558
:10200000805F22D20A118DF81D20C3F3032242EA19
:1020100001123C460DF120088DF81E208DF81F306E
:10202000C7F11C0508E000BF7C1B0020EC47011035
:102030000074B701444508D02819012214F8011B87
:1020400080B2FFF78FF80028F4D005211920FFF7A0
:1020500025F90122F0219320FFF784F801220F21B6
:102060009420FFF77FF8012200211120FFF77AF872
:10207000012200210420FFF775F860216120FFF79D
:102080000DF980210620FFF709F901221B21B1205B
:10209000FFF768F883210D20FFF700F901220024E3
:1020A00001254FF00209182110460DF10B08FFF72A
:1020B00059F84FF4C263C822214620460195CDF855
:1020C00000808DF80C408DF80B90FEF743FE4FF426
:1020D000C063C82221462846CDE90075FEF73AFEC6
:1020E0009DF80C30402B00F013814FF4C263C622E0
:1020F00021462046CDE900858DF80B408DF80C4037
:10210000FEF728FE4FF4C063C62221462846CDE9DB
:102110000075FEF71FFE9DF80C30A32B00F0188110
:102120004FF4C263342221462046CDE900858DF864
:102130000B408DF80C40FEF70DFE4FF4C0633422C7
:1021400021462846CDE90075FEF704FE9DF80C30C7
:10215000692B00F0E5804FF4C263742221462046CB
:10216000CDE900858DF80B408DF80C40FEF7F2FDAF
:102170004FF4C063742221462846CDE90075FEF76E
:10218000E9FD9DF80C30692B00F082800420FFF7F8
:1021900013F929460420FFF7C7F821460420FFF76A
:1021A000C3F84FF4C263AC2221462046CDE9008536
:1021B0008DF80B508DF80C40FEF7CCFD4FF4C0634A
:1021C000AC2221462846CDE90075FEF7C3FD9DF8F7
:1021D0000C3003F07F03562B00F0F6804FF4C263FF
:1021E000C62221462046CDE900858DF80B408DF8AA
:1021F0000C40FEF7AFFD4FF4C063C62221462846CF
:10220000CDE90075FEF7A6FD9DF80C30A12B00F07E
:10221000EE8096F84C407368052C336523D101227B
:102220001A21B120FEF79EFF4D210820FFF736F856
:102230007D48FEF7DDFF012215201146FEF792FFD3
:1022400096F84C305A1F012A40F28B80002401225C
:1022500010211046FEF786FF01232046C6F8E03025
:1022600009B0BDE8F083062C22D0002CEED16F48D7
:1022700005F0A6FC2A4610212846FEF773FF2846E3
:10228000C6F8E050FFF7C8FC204609B0BDE8F0836F
:10229000674805F095FCFEF71DFC66490CF09EFBB7
:1022A000002800F0AF800623726886F84C30326553
:1022B000FEF710FC5F490CF091FB002840D05E4B0C
:1022C0003365ACE74FF0FF345C495D4805F0FAFC3C
:1022D0005C4805F075FC204609B0BDE8F08357491D
:1022E000574805F0EFFC98E55449554805F0EAFCDD
:1022F000B7E55249524805F0E5FCA0E54F49504882
:1023000005F0E0FCD1E54D494D4805F0DBFCBAE5B0
:102310004D4805F055FC736886F84C50336595E7D9
:102320004A4805F04DFCFEF7D5FB42490CF056FB40
:10233000002851D00523726886F84C3032656EE76C
:10234000FEF7CCFB42490CF049FB0028B7D166E709
:10235000404805F035FC0322736886F84C2033654D
:1023600074E7062B15BF0022022234237423306E3B
:1023700086F8702086F86830C6F8DC6003F01CFE32
:1023800027A3D3E9002303F0C9FD0022324B03F059
:1023900077FD0446306D0D4603F020FE02460B46E5
:1023A0002046294603F094FD03F03CFE0821044634
:1023B00000222A4BF46603F11400C6E91D12F367EC
:1023C00001F0B8FC044642E7254805F0F9FB042279
:1023D000736886F84C20C2E7FEF780FB21490CF0B9
:1023E000FDFA0028A6D1204805F0EAFBA2E71F4825
:1023F00005F0E6FB0620FEF7DFFF736886F84C90D9
:10240000336523E7FEF76AFB11490CF0E7FA002871
:102410007FF449AF164805F0D3FB44E7AFF30080E3
:102420000000000080842E41507936008841011060
:10243000B84001107C4001100024F4005447011002
:10244000E43E01109C3F0110CC3F011054400110AC
:10245000E0400110104001100000F03FE41B00209C
:1024600008410110884001109440011044410110BE
:10247000E8400110054B93F84C30053B012B94BF0D
:102480006FF001006FF00200704700BF7C1B00205E
:102490002DE9F0410C4638BB234D4FF000082B6D61
:1024A000A3421ED004B96C68286E2C6503F084FD2D
:1024B0001BA3D3E9002303F031FD00221B4B03F0E3
:1024C000DFFC064620460F4603F088FD0B46024619
:1024D0003946304603F0FCFC03F0A4FD6B6DE86662
:1024E000A3B94046BDE8F081114B0344B3F5FA6F40
:1024F00011D80D4D6B688342CFD02B686860002BDC
:10250000CBD01846FFF720FA8046C8E71846BDE84A
:10251000F041FFF747B86FF00108E2E7AFF3008042
:102520000000000080842E417C1B00200000F03F52
:10253000E88F48FE30B5054685B00020FEF73CFF29
:102540000120002103AC43F201024FF40073CDE9F6
:102550000040ADF80C10FEF7FDFB021E21DBBDF8BC
:102560000C30D5B143F001004FF0000C00210125E3
:10257000C0B260F3070C60F30F2C43F201024FF47A
:102580000473084600940195ADF80CC0FEF7E2FB19
:10259000021E0BDB002005B030BD23F0010080B22D
:1025A000E2E70649064805F08DFBD8E705490448EF
:1025B00005F088FB002005B030BD00BF6847011062
:1025C000E43E01105447011030B500214FF404706F
:1025D000022585B003AC42F24812ADF80C004FF46E
:1025E0008873084600940195FEF7B4FB021E11DBC8
:1025F0000021022042F2481201904FF488730846ED
:102600000094ADF80C10FEF7A5FB021E07DB0020BE
:1026100005B030BD0549064805F054FBE8E703491D
:10262000034805F04FFB002005B030BD54470110B2
:10263000E43E0110014805F0C3BA00BFD8410110C3
:102640000CF092B830B5144C97B020460CF094F8CA
:1026500004F108000CF09CF8201D0CF0A5F804F122
:102660004C000CF0ADF8022304F10A0184F861304B
:102670005822063C68460CF0FFFE94E80F0008F074
:10268000E9FA657A237AE279A1790448009505F0A0
:1026900019FB17B030BD00BFC6070020F041011084
:1026A0002DE9F04F9348A3B005F08AFA08F040FAFC
:1026B00008F05EFA08F020FA08F06AFA08F098FAD2
:1026C0008D4808F065FB8D4B93F86730022B00F0C6
:1026D00001828A4B8A4F1A4611460C46587AD279A3
:1026E0001B7A89790090874805F0ECFA2146582238
:1026F000103168460CF0C0FE94E80F0008F0AAFA0A
:102700000122D4F8063087F82720BB6302F010FEC0
:102710007D4B04465B6A0D46994240F2CD811FAB6A
:1027200017937A4B7A4E18937A4BDFF80C821D93ED
:10273000794B19931EAB1C93DFF8CC910A2002F061
:10274000D9FCD9F82430AB42F8D34FF0000B2A461D
:102750005D469346DFF8B091D9F82810A14202D225
:102760009B4500F0958002F0E3FD6C4A6FF000435A
:1027700084184FF0FF324FF0000A41F1000BA242E3
:1027800073EB0B014FF0170017993CBF9B461446A3
:102790008DF87CA00AF008F8013000F094809DF8D4
:1027A0007C10A1F10103B3FA83F35B09AB4270D053
:1027B000012987F8263040F02C815949594805F005
:1027C00081FA0125AA464D4B93F86730022B64D05D
:1027D00043F201000AF06EFD1C281CD8DFE800F06F
:1027E0000F1B1B1B1B1B1B1B1B1B1B1B1B1B1B1B45
:1027F0001B1B1B541B1B1B251B1B1B1B2100199B7D
:102800001B78002B40F03281202340F2D24201217C
:10281000002008F039FED9F824305B45D3D3554663
:102820009AE7002009F0DEF8F5E7199B1D78002DE6
:1028300040F096804FF0010C04221C993A4883F82E
:1028400000C035701E950AF06DFD9DF87B309DF837
:1028500079209DF87810009334489DF87A3005F07F
:1028600031FA334B17990C220B60BB6A28461BBA0E
:102870002093FB6A1BBA219309F0FCF80C285DD069
:10288000284609F0AFF8C6E7002008F053FFC2E77A
:102890002B46002B95D15D464EE7189B1B78002BED
:1028A00000F0C6800BF0E4FD0428054600F0B3807C
:1028B000002800F0CF8097F82730002B88D1012026
:1028C00002F018FCA7E75B46AB461D46BBF1000FC4
:1028D0003FF432AF87F826A01649124805F0F2F906
:1028E000064B93F86730023B18BF012387F8273067
:1028F00022E700BF1442011041260010C00700204B
:10290000682403203842011000000B40E0550320EA
:10291000D1550320E4440320D255032020A1070011
:102920007442011060420110012001009C4201101C
:1029300052544C3058420110241900207B6B2095D2
:1029400001337B63F0254FF001031799644887F842
:1029500024308DF87C5002F04BFD002800F0988068
:1029600000200AF03FFDD0B11A9404461C9D1B972D
:1029700001222946002009F0FDF8631E01289CB2BF
:102980000BD131789DF878004A1CD2B2052A08F89C
:102990000100327029D0002CEAD1DDE91A4700206D
:1029A0000AF0DAFC05464F4800F0C8F8A842024693
:1029B00028BF2A46B2F5005F6FD83F2A05D8002A03
:1029C0003FF429AFA8423FF626AF4749454800F0FB
:1029D000F3F802464449002092B209F04BF8011E78
:1029E0005EDD3B6B0B443B6315E7D8F801C098F8FC
:1029F00000709CFA8CF3179939488DF87C702093FD
:102A000002F0F6FC08B34FF000033370002CAFD196
:102A1000C3E75D4660E797F82730002B7FF44BAFA4
:102A2000012387F82730314BD3F80630BB6342E7E8
:102A300001202F490BF034FE2E492F4A08460BF097
:102A40003BF80123189A13702CE739462B4805F000
:102A500039F9D8E71D9B2A4819680131196005F03A
:102A600031F90BF0B3FC189B1D7024E70023F1250E
:102A7000199A17991A48137087F8243020938DF803
:102A80007C5002F0B5FC90B11E4805F099F8BBE609
:102A900029461A4805F016F962E74FF4005294E708
:102AA000194805F00FF9002008F09CFFB3E629460D
:102AB000124805F007F9E7E7144A154E1892154A2F
:102AC000DFF85C801D92144A19921FAA17921EAA61
:102AD0001C923AE6114805F073F8014F16E600BF64
:102AE0006824032078240320A4240320C0070020A6
:102AF000601C00204526001035260010C842011039
:102B00007842011018430110F4420110E0550320EF
:102B1000D1550320E4440320D2550320284201105C
:102B20002419002000230160C360426083600361B8
:102B3000704700BF0023C360836070478268C3682A
:102B40009A423CBF41685218D01A70472DE9F041B3
:102B500088468168C3684568994238BF4919044668
:102B6000CB1A681EC71ABA421CD921690A44121A24
:102B700013442361A6682068AD1BBD4228BF3D46B3
:102B800041462A4630440CF077FCBD420CD36368C2
:102B90003E44B34298BFF61ABFF35F8F3846A66033
:102BA000BDE8F0811746E5E7206808EB05017A1BD0
:102BB0000CF062FCEBE700BF2DE9F041884681682C
:102BC000C3684668994238BF8919CB1A9A4228BF10
:102BD0001A46C7681546F61B964228BF1646016876
:102BE00004463246404639440CF046FCAE420AD315
:102BF00063682F44BB4298BFFF1ABFF35F8F28461C
:102C0000E760BDE8F081216808EB0600AA1B0CF024
:102C100033FCEDE708B50BF0F1FD074B1A7852B124
:102C20004FF0000C282283F800C01146BDE8084090
:102C300010460BF063BE08BD28080020154B1A781B
:102C4000824207D01870052804D8DFE800F0090E8A
:102C500013181D0470473C22002110460BF04EBE95
:102C60002822114610460BF049BE00223C20114696
:102C70000BF044BE0022282132200BF03FBE002181
:102C80003C2208460BF03ABE00223C2110460BF0D5
:102C900035BE00BF280800202DE9F04F0746C1F1DE
:102CA000230887B0481E98450E461D46039207EB41
:102CB000000406DB114620461A460CF0AFFB002844
:102CC00047D0A84542462046A8BF2A4603990CF0A3
:102CD000D3FB07F12303059307F122034FF000090B
:102CE000B346049303E02D1B5FFA82FB31D03E68AC
:102CF000039BF46803EB0901013CAC4232BFA046E0
:102D0000A8462C4608F1010A2246059887F822B009
:102D10000CF0B2FB049A53463178386EFEF7D2FBC2
:102D200082450BEB0802C144DDD082460B4A0346C4
:102D300012680B49D068CDE900B80A4A0CF02EFCA5
:102D40001AF101035046A8BF4FF0FF3007B0BDE8AD
:102D5000F08F002007B0BDE8F08F00BF1009002001
:102D600034430110484801102DE9F0410027024684
:102D700080F8227052F8224B012305460E46006E61
:102D8000217886B0FEF79EFB012813D0012504466A
:102D90004B4A034612684B49D0684B4A009701954D
:102DA0000CF0FCFB621CA8BF4FF0FF34204606B0BD
:102DB000BDE8F0812A4652F8231B0523286E0978C6
:102DC000FEF792FB0528044666D13C4695F8233071
:102DD000DFF8FCE003F00F0808F118020DEB020821
:102DE0000DF1080C06AA02EB13179EE80F008CE801
:102DF0000F0018F8102C17F8103C204643EA021375
:102E0000337095F8243003F00F0808F118020DEB29
:102E1000020806AA02EB131717F8103C18F8102C3A
:102E200043EA0213737095F8253003F00F0808F198
:102E300018020DEB020806AA02EB131717F8103C54
:102E400018F8102C43EA0213B37095F8263003F0FB
:102E50000F0808F118020DEB020806AA02EB13177F
:102E600017F8103C18F8102C43EA0213F37095F889
:102E7000273003F00F0707F118020DEB020706AA2F
:102E800002EB131515F8103C17F8102C43EA021347
:102E9000337106B0BDE8F0810525094A0346126882
:102EA0000A49D068084A009701950CF077FB631C2B
:102EB000A8BF4FF0FF34204606B0BDE8F08100BF48
:102EC0001009002034430110544801105C430110E4
:102ED000A44901102DE9F04F8DB090F819C0076892
:102EE00008AD2CF00C0C0E4601232A461A217F68EF
:102EF00004468DF820C0FFF7CFFE0028C0F2B58051
:102F0000C84906F5FA73D4F80F00A1FB0313C0F308
:102F1000044262F07F0206909B098DF81A20627DC0
:102F20005900A1F5D8118DF81E20BF4AB4F813C07E
:102F3000A1F5047100F0EF009142ADF81CC08DF8CE
:102F4000180000F295804FF002084FF0000920466B
:102F500004A9FFF709FF0028C0F2878023681B7AC5
:102F6000022B08D0B14AB249206EFEF797FA82468A
:102F7000002800F03F814FF0010A52469DF81430BE
:102F8000C3F301139A4280F0C08009F1FF395FFA60
:102F900089F9A8FB06819DF81830090441EA184117
:102FA00003F01F034FEA084818EB070043EA4913F0
:102FB00041F100018DF818307A00002310F090FCE8
:102FC000BAF1000F14BF80234023C0F307418B42A6
:102FD00080B240F34D81A1F10D021346B0FA80F7A3
:102FE000002AB8BFA1F10A039DF81A60C3F3870352
:102FF00003EB82138DF81D0026F00806000A7F09F6
:103000008DF81C308DF81E0007231021204606AADB
:1030100046EAC7068DF81A60FFF73EFE002824DB5B
:10302000002104F12203834E039302914FF000022A
:10303000236884F822201978039A0123206EFEF772
:1030400041FA0128074666D07B4A034612680124EC
:10305000D0680022794900920194794A0CF09EFAD6
:103060007A1C3846A8BF4FF0FF300DB0BDE8F08F96
:103070009900A1F5D811A1F50471914204D84FF03F
:1030800004084FF0010962E7D900A1F5D811A1F5B4
:103090000471914216D84FF0080843464FF00009DA
:1030A000C3F3470309F10109022B5FFA89F97FF69F
:1030B0004EAFC3F3470309F10109022B5FFA89F907
:1030C000EED844E71901A1F5D811A1F50471914298
:1030D00002D84FF01008E0E75901A1F5D811A1F589
:1030E0000471914202D84FF02008D6E79B01A3F566
:1030F000D813A3F50473934202D84FF04008CCE7ED
:103100004FF080084FF0000921E784BF09F1010961
:103110005FFA89F93DE7224652F8231B0323206E0C
:103120000978FEF7E1F90328804665D194F823E099
:1031300094F824C00EF00F0B0BF130030CF00F0AC3
:103140000DEB030B0CAB03EB1E1E0AF130030DEB72
:10315000030A0CAB03EB1C1C94F8253003F00F089A
:1031600008F130020DEB02080CAA02EB131996E8E5
:103170000F0085E80F001BF8102C1EF8103C43EAE6
:1031800002138DF810301AF8102C1CF8103C43EA8A
:1031900002138DF8113018F8103C19F8108C48EA19
:1031A00003185FFA88F88DF8128018F0400810D1E3
:1031B000029B002B4AD0204B18221B683946DB6843
:1031C00020480CF0F3FB4046C4F84C800DB0BDE83D
:1031D000F08F617E3B4621F0080141F008018DF837
:1031E00020102A4620461A21E764FFF755FD0DB04E
:1031F000BDE8F08F0222C1E60F4A0346126803249D
:10320000D06800221049009201940D4A0CF0C6F9D2
:1032100018F101034046A8BF4FF0FF300DB0BDE8E4
:10322000F08F00BFD34D62100F021B0088400110C9
:103230007C400110A4490110100900203443011002
:1032400054480110AC4301105C430110637C2A46D2
:1032500003F01F0343F060038DF8203012213B463A
:103260002046FFF719FD0028FFF6FFAE0297DDE6C6
:10327000044B32461B680449D8680CF08FF94FF0B4
:10328000FF30F2E610090020844301102DE9F041DF
:1032900016460279044684B002F0EF0200293CD0C1
:1032A00042F010028DF80F20012305210DF10F02CD
:1032B000FFF7F2FC00282DDBA279012322F0100297
:1032C0008DF80F20072120460DF10F02FFF7E4FCD7
:1032D00000281FDB4FF00008224684F8228052F8B5
:1032E000221B0123206E0978FEF7ECF8012807461F
:1032F00040D00124B44A03461268B449D068B44AA5
:10330000CDF8008001940CF049F97A1C3846A8BF2A
:103310004FF0FF3004B0BDE8F0818DF80F2001239D
:1033200005210DF10F02FFF7B7FC0028F2DBA179B0
:10333000012321F0100141F010018DF80F102046FB
:1033400007210DF10F02FFF7A7FC0028E2DBE57A69
:10335000012305F060050C21204645F00B050DF119
:103360000F028DF80F50FFF797FC00EAE07004B0F1
:10337000BDE8F081224652F8231B0423206E097811
:10338000FEF7B2F80428054640F09B80E37A0C2152
:1033900003F0600343F008038DF80F3020463B46EE
:1033A0000DF10F02FFF778FC0028B3DB002E40F38D
:1033B0009E80092E64DD0E2E40F39B801B2E40F371
:1033C0009B80252E40F39C804D2E40F3A180572EEC
:1033D00040F39A807D2E40F39F80902E40F38380AF
:1033E0009D2E40F39D80A62E40F39E80C52E40F377
:1033F0009F80CF2E40F3A080E52E40F3A580FE2EC7
:1034000040F39E80B6F58C7F40F3A680B6F5957F9D
:10341000C0F29E80B6F5A47F40F3AA80B6F5A97FDE
:1034200040F3A280B6F5B67F40F39A80B6F5BA7F36
:1034300040F3A280B6F5C17F40F3A280B6F5C97F04
:1034400040F3A280B6F5D37FC0F2A680B6F5D97F4F
:1034500040F39E80B6F5DC7FC0F2AA80B6F5DF7F30
:10346000C0F2A280B6F5F07F40F39A80B6F5F27F05
:10347000C0F2A680B6F5F87F40F39E800F27B846CD
:103480002379052123F00F031F43204601230DF16B
:103490000F028DF80F70FFF7FFFB0028FFF63AAF21
:1034A000A279012322F00F0248EA020820460721F0
:1034B0000DF10F028DF80F80FFF7EEFB00EAE070D0
:1034C00028E70424404A034612684249D068404A2B
:1034D000CDF8008001940CF061F86B1C2846A8BF61
:1034E0004FF0FF3016E74FF004084746C8E747465D
:1034F000C6E7B8464746C3E74FF001080227BFE7D3
:103500004FF002084746BBE74FF003084746B7E7CE
:103510004FF002080327B3E74FF003080427AFE793
:103520004FF004080527ABE74FF005084746A7E72B
:103530004FF005080627A3E74FF0060847469FE728
:103540004FF0070847469BE74FF00608072797E725
:103550004FF00808474693E74FF0070808278FE722
:103560004FF009080A278BE74FF00908474687E71D
:103570004FF00808092783E74FF00A0847467FE71E
:103580004FF00A080B277BE74FF00B08474677E719
:103590004FF00C08474673E74FF00B080C276FE716
:1035A0004FF00D080E276BE74FF00D08474667E711
:1035B0004FF00C080D2763E74FF00E080F275FE769
:1035C0004FF00E0847465BE7100900203443011016
:1035D000544801105C430110F0B54B4B044699422E
:1035E00083B006DC494B994228DD2A251022484940
:1035F00002E00B2510224649637A616423F0100330
:103600001A438DF8072001230A2120460DF10702F5
:10361000FFF742FB00280FDBA27A012302F0100221
:1036200015430B2120460DF107028DF80750FFF7D7
:1036300033FB0028A8BF606C03B0F0BD354B994246
:103640003FDC354B994240DDC0254FF0800CA1F5A1
:10365000B921324E324F334B334AA1F58C61334896
:10366000814206DD3B4665463246A1F5AA21A1F519
:10367000E6612F48814230DC2E48814236DC2E48FC
:10368000814235DC2D48814234DC2D48814233DCD7
:103690002C48814232DC2C48814231DC2B4881426B
:1036A00030DC2B488142C8BF092017DC01460620C8
:1036B0000A4402EBD27105430022EDB2A3EB610193
:1036C0009AE76B251022234996E7E0254FF0A00CDE
:1036D00000221F4E204F214BC1E701202049461EEA
:1036E000C0F1100051F82610C0B2E1E70220F5E762
:1036F0000320F3E70420F1E70520EFE70620EDE7DC
:103700000720EBE70820E9E7C0CF6A00808D5B0067
:1037100090BB450030142500D0471F0090230B00BC
:10372000F03B2E00C0E4280060CC0500A0F019009A
:10373000006A1800B0A6170010201600804F120073
:10374000A0BB0D0060AE0A0070640800D0DD06006A
:103750003057050050793600906F2800601823001C
:1037600060480110000000002DE9F04FC44A0546F2
:1037700083B00F46006EC349FDF790FEC24A8046F3
:10378000C049286EFDF78AFE58EA0003814640F0E2
:103790001C8138466A6CBD498618A1FB0621DFF8FA
:1037A00018A300245346890C02E0142C00F01C815D
:1037B00053F80C2F2046914204F10104F5D204463F
:1037C00000EB40030AEB83031B7903F00803AA7D97
:1037D000172122F0080213438DF8073028460123F1
:1037E0000DF10702FFF758FAB0F1000BC0F2E180CB
:1037F00004EB44040AEB84046B7E627903F03C031F
:1038000022F03C0213438DF807301A210123284689
:103810000DF10702FFF740FAB0F1000BC0F2C980CA
:10382000A3791B218DF80730284601230DF10702EB
:10383000FFF732FAB0F1000BC0F2BB8095F84130CF
:10384000022B00F0D38000F21181E27942F00802ED
:10385000EB7B02F00B0223F00B0313438DF80730D0
:103860001021012328460DF10702FFF715FAB0F1E8
:10387000000BC0F29E80EB79082123F03F038DF806
:103880000730284601230DF10702FFF705FAB0F1D2
:10389000000BC0F28E802B7A092123F03F038DF8B4
:1038A0000730284601230DF10702FFF7F5F9B0F1C3
:1038B000000B7EDB31462846FFF70CFBB0F1000B16
:1038C00077DBEB6C002B7CD0B8F1000F00F092801E
:1038D0006F4AAB7D974203F0F70440F2EF806D4BE7
:1038E0006D4A3B44934240F247816C4EA7F12463FA
:1038F000A3F50343B34294BF0026012601231721F9
:1039000028460DF1070244EAC6048DF80740FFF788
:10391000C3F9B0F1000B54DB614B9F4240F2DB80F6
:10392000604A61493A448A4295F8493040F233810D
:10393000032B46D00026032201273446334685F860
:1039400049206A79062122F0080213438DF80730D6
:10395000284601230DF10702FFF79EF9B0F1000B95
:1039600027DB3A460521286EFDF7D0FDB0F1000BAC
:103970001FDB2B79052123F040031C43284601233C
:103980000DF107028DF80740FFF786F9B0F1000B43
:103990000FDB2A79012322F0200216432846052155
:1039A0000DF107028DF80760FFF776F9B0F1000B13
:1039B00007DA3E4A5B4610683D493E4AC0680BF054
:1039C000EDFD584603B0BDE8F08F354B38469F42B9
:1039D000BFF4E0AE02F002FB27A3D3E9002302F01C
:1039E0004FFA02F01FFBD5E60023F0E6227A42F000
:1039F00008022DE7B9F1000F00F09780284B9F4295
:103A000040F2D28095F84930032BDAD044460323A4
:103A10004FF00108264642460521286E85F84930B8
:103A2000FDF774FDB0F1000BC3DB2B79052123F00A
:103A300040031E43284601230DF107028DF807605D
:103A4000FFF72AF9B0F1000BB3DB2A79012322F04A
:103A500020021443284605210DF107028DF8074086
:103A6000FFF71AF9B0F1000BABDAA2E7042B7FD114
:103A7000627AEDE6AFF300800000000040777B4102
:103A8000E04001107C4001108840011083DE1B43A0
:103A9000C0912100C000EFFAC0FC9B01801D2C04E6
:103AA0000074B701FF8B48FE7E3E2F0D10090020E9
:103AB000C84301103848011088480110012317211C
:103AC00028460DF107028DF80740FFF7E5F8B0F141
:103AD000000BFFF676AF697E012301F03C0141F057
:103AE00040018DF8071028461A210DF10702FFF753
:103AF000D3F8B0F1000BFFF65CAF002401231B21CB
:103B000028460DF107028DF80740FFF7C5F8B0F120
:103B1000000BFFF64EAF95F84930012B3FF451AF43
:103B2000012220260823274609E7334B9F4294BFF2
:103B3000602700272B681B7A022B7FF442AF95F891
:103B40004930BB423FF43DAF2979012321F06001A8
:103B500039438DF80710284605210DF1070285F835
:103B60004970FFF799F8B0F1000BFFF622AF28E794
:103B7000627A42F008026BE60123172128460DF114
:103B800007028DF80740FFF787F8B0F1000BFFF64A
:103B900018AF95F84930022B3FF413AF02222026CC
:103BA000402401270023CAE66A7E012302F03C027A
:103BB00042F040028DF807201A2128460DF1070235
:103BC000FFF76AF8B0F1000BFFF6F3AE01231B21FB
:103BD00028460DF107028DF80780FFF75DF8B0F178
:103BE000000BFFF6E6AE95F84930012B3FF4E9AE45
:103BF0000123202440260EE740489014036D0BB9A2
:103C0000184670474FF0B10C10B582B00123062161
:103C10000DF1070204468DF807C0FFF73DF8031EBB
:103C2000C0F284804FF0A00C0123052120460DF145
:103C300007028DF807C0FFF72FF8031E76DB4FF061
:103C40003A0C0123072120460DF107028DF807C029
:103C5000FFF722F8031E69DB4FF0400C0123082117
:103C600020460DF107028DF807C0FFF715F8031E77
:103C70005CDB4FF0C00C0123092120460DF1070247
:103C80008DF807C0FFF708F8031E4FDB4FF0360C26
:103C900001230A2120460DF107028DF807C0FEF727
:103CA000FBFF031E42DB4FF0350C01230C212046A5
:103CB0000DF107028DF807C0FEF7EEFF031E35DB9E
:103CC0004FF0680C01230F2120460DF107028DF8FB
:103CD00007C0FEF7E1FF031E28DB4FF0030C0123B2
:103CE000112120460DF107028DF807C0FEF7D4FF21
:103CF000031E1BDB4FF0F40C0123172120460DF1AE
:103D000007028DF807C0FEF7C7FF031E0EDB4FF05A
:103D10000C0C01230DF10702192120468DF807C074
:103D2000FEF7BAFFFF22034684F85820184602B077
:103D300010BD00BF0423F0B50546C61885B080F855
:103D400041301E22002130460AF0F6FD1E230521D7
:103D5000C94A2846FEF7A0FF0027F023C74C8DF87C
:103D600008300FCC68607160B260F36007CC01234B
:103D700030617161B2610C21284602AA2F84FEF7DE
:103D80008BFF041EC0F26C81A97C012321F03F014E
:103D900041F031018DF808102846132102AAFEF7E0
:103DA0007BFF041EC0F25C81297F012321F03801D2
:103DB0008DF8081028461D2102AAFEF76DFF041E8B
:103DC000C0F24E810226AE4BAE4F6B64AB7A0B2134
:103DD00023F0600343F060038DF807302846012389
:103DE0000DF10702FEF758FF041EC0F23981AB7BCC
:103DF0000F2123F0040343F004038DF80730284615
:103E000001230DF10702FEF747FF041EC0F22881CF
:103E1000EB7B102123F003038DF8073028460123A4
:103E20000DF10702FEF738FF041EC0F21981394672
:103E30002846FFF74FF8041EC0F21281EB6C002BEE
:103E400000F0DC80AB7A0B2123F0100343F0100369
:103E50008DF80730284601230DF10702FEF71CFFFD
:103E6000041EC0F2FD80AB7A0B2123F010038DF805
:103E70000730284601230DF10702FEF70DFF041E4F
:103E8000C0F2EE80AB7B0F2123F004038DF80730E6
:103E9000284601230DF10702FEF7FEFE041EC0F2C4
:103EA000DF80284602A9FEF75FFF041EC0F2D8801B
:103EB00048F201029DF80C3003F00F03DA4012F0D3
:103EC000010285F8483003D0012E01D016467DE767
:103ED0000F2B00F0BE816A7A0A2122F01F021343E1
:103EE00043F010028DF80720012328460DF1070248
:103EF000FEF7D2FE041EC0F2B380AA7A012302F0BC
:103F0000100242F06B028DF807200B2128460DF1BC
:103F10000702FEF7C1FE041EC0F2A280AA790123A7
:103F200002F07F028DF80720072128460DF10702D5
:103F3000FEF7B2FE041EC0F293806A79012322F0DC
:103F4000300242F010028DF80720062128460DF1BC
:103F50000702FEF7A1FE041EC0F282806A7F0123E1
:103F600022F0600242F060028DF807201E212846F0
:103F70000DF10702FEF790FE041E71DB2A79012382
:103F800002F07F028DF80720052128460DF1070277
:103F9000FEF782FE041E63DBAA7F012302F07F028C
:103FA0008DF807201F2128460DF10702FEF774FE49
:103FB000041E55DBAA7B012302F07F028DF8072047
:103FC0000F2128460DF10702FEF766FE041E47DBAF
:103FD000297E012321F0600141F060018DF8071076
:103FE000284619210DF10702FEF756FE041E37DBA5
:103FF0000323002285F858306A65EB652B681B693E
:1040000073B16979012321F0400141F040018DF83D
:1040100008102846062102AAFEF73EFE041E1DDBFC
:10402000297F012301F0380161F03A018DF8081071
:1040300028461D2102AAFEF72FFE041E0EDBE97E94
:10404000012301F0070141F020018DF808102846F6
:104050001C2102AAFEF720FE041E1BDA01232B6599
:10406000094A234610680949094AC0680BF096FAC4
:10407000204605B0F0BD00BF84490110B4490110CD
:1040800050793600007E560310090020C843011005
:104090002C480110532401230D21284602AA8DF833
:1040A0000840FEF7F9FD041ED8DB752401230E211C
:1040B000284602AA8DF80840FEF7EEFD041ECDDB6F
:1040C00000242A7985F8494022F060028DF8082002
:1040D00001230521284602AAFEF7DEFD041EBDDBF2
:1040E0006979012321F008018DF80810284606217E
:1040F00002AAFEF7D1FD041EB0DB297C012321F0CA
:10410000380141F038018DF808102846112102AA23
:10411000FEF7C2FD041EA1DBA97D012321F03001C1
:1041200041F030018DF808102846172102AAFEF749
:10413000B3FD041E92DB697A012321F0600141F096
:1041400040018DF8081028460A2102AAFEF7A4FDB6
:10415000041E83DB297F012321F038018DF808102C
:1041600028461D2102AAFEF797FD041EFFF676AF32
:10417000E97E012321F004018DF8081028461C2156
:1041800002AAFEF789FD041EFFF668AF69790123D4
:1041900021F040018DF808102846062102AAFEF7FA
:1041A0007BFD041EFFF65AAF697E012321F030012A
:1041B00041F030018DF8081028461A2102AAFEF7B6
:1041C0006BFD041EFFF64AAF297F012321F0380161
:1041D00041F018018DF8081028461D2102AAFEF7AB
:1041E0005BFD041EFFF63AAFE97E012321F00401D6
:1041F00041F004018DF8081028461C2102AAFEF7A0
:104200004BFD041EFFF62AAF697F012321F01F0139
:1042100041F00E018DF8081028461E2102AAFEF773
:104220003BFD041EFFF61AAF687E012320F030002C
:1042300040F020008DF808001A21284602AAFEF757
:104240002BFD041E4FF00103FFF609AF00242B6580
:104250000EE70022134685F848203CE610B44FF4E0
:1042600080740C4B53F8202003EB8003C00082F0D5
:10427000400200F1804003F5805C02F0C00200F5CE
:10428000203003F54053CCF8002041601C605DF8FD
:10429000044B70470480034030B44FF0000343ECFC
:1042A000440043EC400005254FF480740B4BC200E2
:1042B00053F8201003EB800081F0400102F18043AD
:1042C00003F5203301F0C00200F5805100F54050A5
:1042D0000A605D60046030BC704700BF048003402A
:1042E0000FB400B583B0049C074803F069FC3CB1EF
:1042F00005A92046019103F039FA044803F060FC57
:10430000012003F04BFA00BFD8430110683E0110B2
:10431000EFF3108072B6064BD3E8CF1F01220029BD
:10432000FAD1C3E8412F0029F6D1BFF35F8F704760
:104330002B1500200023034AC2E88F3F80F310882A
:10434000704700BF2B15002070B58646EFF310852F
:1043500072B6124CD4E8CF6F0120002EFAD1C4E817
:10436000460F002EF6D1BFF35F8F4FF0010CC80847
:1043700001F007030CFA03F31EF800C01CEA030661
:1043800008D14CEA030C0EF800C0C4E88F6F85F327
:10439000108870BD1046FFF7A3FF00BF2B1500204B
:1043A000F8B5EFF3108572B6234CD4E8CF7F012621
:1043B000002FFAD1C4E8476F002FF6D1BFF35F8F0B
:1043C0009A4227D80126D70810F807E002F0070C18
:1043D00006FA0CFC1EEA0C0F00EBD2070DD125E00B
:1043E0004FEAD20E10F80EE002F0070C06FA0CFCB1
:1043F0001EEA0C0F00EBD20718D001329342EFD225
:104400004FF0FF300023C4E88F3F85F310889842B7
:1044100007DBF8BD0023C4E88F3F85F310884FF019
:10442000FF300029F5D00698FFF75AFF4EEA0C0E30
:10443000104687F800E0E5E72B150020044A1078C5
:10444000431CDBB2182B28BF10231370704700BF2A
:104450002908002010B5054C82B001461F23182200
:1044600000940348FFF79CFF02B010BDE843011021
:10447000181900204FF0E022936843F00053936036
:10448000704700BF0021044B03F12002C3E88F1FD7
:1044900001339342FAD17047201500204FF0E023FA
:1044A0004FF08032C3F80024C3F80424C3F8082472
:1044B000C3F80C24C3F81024C3F81424C3F8182438
:1044C000C3F81C24C3F82024C3F82424C3F82824E8
:1044D000C3F82C24C3F8302462B67047012300F0DF
:1044E0001F029340400941B1800000F1604000F597
:1044F0006140C0F8803103607047024A203042F8C2
:104500002030704700E100E00123064A410952F8DB
:10451000212000F01F008340134214BF012000201F
:10452000704700BF00E100E0F8B50D46EFF31087DB
:1045300072B6124ED6E8CF2F0123002AFAD1C6E870
:10454000423F002AF6D1BFF35F8F0D4B00F11004FC
:104550009B680C4A53F82430934203D0994201D00F
:1045600001F048FB064B9B6843F82450BFF35F8F74
:104570000023C6E88F3F87F31088F8BD2915002077
:1045800000ED00E0110100102DE9F04F81468B464F
:10459000164683B0EFF3108372B6DFF8D0A1009314
:1045A000DAE8CF1F01230029FAD1CAE8413F0029E8
:1045B000F6D1BFF35F8F664B93F90040002CC0F239
:1045C000A080644D04EB440705EB870898F80610BB
:1045D00009F110091970604BBF009B6853F829005E
:1045E0006300411B2F292FD95C49884240F0A480E9
:1045F0001C445B4B02372F44043BDB1BC3F34A03D1
:104600006FEAC3434FF421416FEAD34325F82410E6
:1046100005EB840463804BF60153A380FF2348F02D
:104620000100E671C4F808B0A3714B4B9B6843F8D6
:104630002900BFF35F8F0023CAE88F3F009B83F3FD
:10464000108803B0BDE8F08F20F0010E9EF807102F
:10465000B1422ED84FF42143EB53414BB91C2944AE
:10466000043B04375B1A2F44AEF104013D4CC91BD7
:10467000C1F34A012143A8F80410C3F34A033A499D
:104680002343A8F802304AF6AA2073465B1B5B411D
:104690005843000D88F8076088F80600C8F808B08D
:1046A00048F00100CEF80010BFE7D179B1422ED911
:1046B00096469EF906C00CEB4C02BCF1000F05EBD0
:1046C0008202F2DA4BF601510EF10402A8F104075E
:1046D000BF1AC7F34A076FEAC7476FEAD7478EF892
:1046E000064003EB0408204C05EB8803AEF8047089
:1046F00045F82840998083F806C0DE71C3F808B0F9
:1047000093E701F077FA124B93F9004059E77246AC
:1047100032F8041F490514D44915023102EB410156
:1047200001916FF00701C91B019F491B3944C1F377
:104730004A0141F46041C9E7019301F05BFA019B32
:1047400056E701F5FF1101F5FF511F31E4E700BF06
:10475000D45503202C08002000ED00E011010010CA
:104760005C08002000E0FFFF014880472915002079
:104770002DE9F04F83B0EFF3108A72B6744ED6E88D
:10478000CF2F0123002AFAD1C6E8423F002AF6D1F2
:10479000BFF35F8F6F4B00F110089B686E4A53F8B0
:1047A000285095423FD08D420C464AD06B4FEB1BB0
:1047B0002F2B38D801214FEA50194FEA890909F106
:1047C000604909F5614900F01F0301FA03F0D9F8C7
:1047D0000030C9F8800000EA030BBFF35F8FEFF3EE
:1047E0000581C9B279B3884577D125F0010EDEF88D
:1047F00008C0644505D17CE0D3F808C0644532D0D8
:104800009E469EF9062002EB4203002A07EB830333
:10481000F2DA644500F08180BBF1000F20D0C9F8C6
:104820008001C9F800004B4B9B6843F82850BFF348
:104830005F8F0023C6E88F3F8AF3108803B0BDE87E
:10484000F08F1546EFE725F0010EDEF808C064454D
:10485000D7D19EF906407346002C08DA154666E06B
:10486000C9F88000DFE793F90640002C56DB04EB23
:10487000440C07EB8C0CDCF8082061009A609CF873
:104880000720DA719CF90620002A9A715DDBBCF8DA
:104890000420520504D502F5FF1202F5FF521F3223
:1048A000521502F1020C4FF0040E0C2212FB04E22E
:1048B00002EB4C026FF0070C3A44ACEB030C624481
:1048C000C2F34A0242F460429A80254B21441A788E
:1048D00007EB81011C708A719EE7CDE9000101F0B0
:1048E00089F9DDE9000125F0010EDEF808C0644514
:1048F00087D19EF906407346002CB8DA194A1A4C43
:10490000D21A083AC2F30A316FEA01516FEA115123
:1049100044EA5202DA8099807EE773460029EDD19D
:10492000FF228EF806204BF60152AEF804200C4C04
:104930004AF6AA2294F800C01946C91B49414A43C5
:10494000120D83F806C0227066E74BF60152BBE7F2
:104950002915002000ED00E0110100102C080020B6
:10496000D45503206608002000F8FFFFF0B5EFF3F0
:104970000585EDB2EFF3108C72B62649D1E8CF2F42
:104980000123002AFAD1C1E8423F002AF6D1BFF341
:104990005F8F214E40F0010EB4684AF6AA2354F806
:1049A00025701E4A0446A41A644163431B0D7745D3
:1049B0005BB21BD092F906409C421CD092F9124087
:1049C0009C4223D092F91E409C4221D092F92A4069
:1049D0009C4208BF03240FD0114A0024157813709D
:1049E0008571C1E88F4F8CF31088F0BDB2680D4C13
:1049F00042F82540F0E7002404EB440402EB840273
:104A0000FF2494714BF601549480E5E70124F3E709
:104A10000224F1E72915002000ED00E02C08002019
:104A2000D455032011010010014B0B440360704763
:104A30002015002070B5104C104DAC420ED2FF2650
:104A4000236863B1FFF7FAFC01462046FFF7ECFF4D
:104A5000A680BFF35F8F0834AC42F1D370BDFFF77F
:104A6000EDFC01462046FFF7DFFF2671BFF35F8FA5
:104A70000834AC42E4D370BDC00F0020D00F00203A
:104A800010B50446FFF7DAFC01462046FFF7CCFFDD
:104A9000FF232371BFF35F8F10BD00BF10B5044625
:104AA0000120FFF7D7FC034B03442360BFF35F8F64
:104AB00010BD00BF201500200D4B1A68EFF31081C8
:104AC00072B6D2E8CFCF0120BCF1000FF9D1C2E815
:104AD0004C0FBCF1000FF4D1BFF35F8F00221B68B5
:104AE000C3E88F2F81F3108840BF0020002170475A
:104AF0007C550320000000002DE9F04F2DED028BC6
:104B000085B0EFF30583DBB2103B9A0818BF012292
:104B10004FF0010103F0030018BFAF4DAF4B08BFCA
:104B2000AF4D00EB820253F8226001FA00FB05F55D
:104B300041539FEDA78B0190C3F804B02EE0B388DA
:104B4000180440F19280B379002B40F0DC80B6F974
:104B500008100029C0F21D81736901EB410103EBCC
:104B6000C103D3E90247B7F1FF3F08BFB4F1FF3FEC
:104B70000DD0019B05EB8301AB6A0A69D21AE31AD7
:104B8000934203D32B6A13EA0B0F00D10C61284622
:104B900000F0C6FBA042B941C0F2FB80B6F9083074
:104BA000C5F83CB0002B0093C9DBD6F8149003EB9A
:104BB000430A284609EBCA07D7E9024800F0B0FBD0
:104BC000A04271EB0801BADBB8F1000FC0F2C3805C
:104BD000D7E90431834A934200F0ED807A88B6F930
:104BE000080092B242EA0040984702460B4652EA59
:104BF000030100F0B080002B80F2D180B4EB020EF4
:104C000068EB030839F93A30C7E902E8002B96DB74
:104C1000716903EB430201EBC202D2E90270BE45A7
:104C200078EB000C4FEA430289DBB4462CF8083FCE
:104C30000BE031F93230A446002B0DDB03EB4300CF
:104C400001EBC0005A00D0E90270BE451A4478EB6F
:104C5000000001EBC204ECDA29F83A30009BACF812
:104C60000030B38818043FF56EAF3369EFF310825C
:104C700072B6D3E8CF0F01210028FAD1C3E8401F54
:104C80000028F6D1BFF35F8F4FF6FF74B088002382
:104C9000316900B2B480C1E88F3F82F31088984236
:104CA000FFF651AF0746A946746906F1080807EBFD
:104CB000470E04EBCE03D3E90250B6F90830C446E0
:104CC000002B13DBB246009704E034F936309446EB
:104CD000002B09DB03EB430604EBC602D2E90271A9
:104CE000BD4270EB0101F0DA5646009FACF800704F
:104CF00034F93E7024F83E30002FD8DAB3794D46AF
:104D0000002B3FF424AF0023B371B6F9083006F14D
:104D10000808591C3DD01946776903E080465A1CA3
:104D20003FF417AF03EB430207EBC200B0F802C039
:104D30001C461CF4004F9E4637F93230EED08C42B0
:104D400080ED028B05D0A8F80030318927F83210A9
:104D500034817146E3E739F83A3033813369EFF350
:104D6000108272B6D3E8CF0F01210028FAD1C3E830
:104D7000401F0028F6D1BFF35F8F7388316929F88F
:104D80003A30009B73800023C1E88F3F82F3108884
:104D9000D5E640BF05B0BDEC028BBDE8F08F2846DC
:104DA000CDE9022300F0BCFA029A039B10EB020E3D
:104DB00043EB010826E708460B6902919847002853
:104DC000C9D00299D1E9002311E700BFAFF30080F9
:104DD000FFFFFFFFFFFFFFFF00800B40BC440320ED
:104DE00000000B40F94A00102DE9F84F364C2569B8
:104DF0002DB1BDE8F84F0A213448FFF715BEDFF8A2
:104E0000E4800321404600F079FA0326C4F80C80C0
:104E1000FFF714FB4FF0504C2D4B267003442361D9
:104E2000DCF800300F216370636961801D834FF0EF
:104E30000405A3F878504FF00505A3F890504FF003
:104E40000605A3F8A8504FF007050E214FF6FF7294
:104E500008274FF00A0EA3F8C0504FF001094FF099
:104E60000C0C4FF0020B4FF0090A0D204FF00B0510
:104E7000A3F868111749A280A3F808E1A160A3F87C
:104E800048B0A3F8F0A0A3F82051A3F838C1A3F8C4
:104E90005001A3F83090A3F86060A3F8D8701A808E
:104EA0000D4B3046C8F820700C49DC60FFF73CFB26
:104EB00049463046FFF712FB094B0A211F6403489D
:104EC000BDE8F84FFFF7B0BD740800207C55032003
:104ED00020150020FFFF1000BC440320F94A0010F9
:104EE00000200B4000000B40004870477408002071
:104EF0000146F0B50069EFF3108772B6D0E8CF5FD6
:104F00000124002DFAD1C0E8454F002DF6D1BFF3A2
:104F10005F8FB1F902E04C690EEB4E0CBEF1000F51
:104F20004FEACC0504EBCC0C3DDB605B00264880EF
:104F30000869C0E88F6F87F31088BCF80200CCE9DD
:104F400002230130C0F30E00012838BF0120059B69
:104F5000ACF80200CCF81030069B40EA0E40CCF8CA
:104F600014300B69EFF3108272B6D3E8CFCF01276C
:104F7000BCF1000FF9D1C3E84C7FBCF1000FF4D1B4
:104F8000BFF35F8F8B886353A1F804E00B69C3E81C
:104F90008F6F82F310880122CB68097803F50153E3
:104FA0008A405A60F0BD00230A69C2E88F3F87F348
:104FB00010884FF0FF30F0BD03464089B0EB214F21
:104FC00037DD58690A1402EB420210B500EBC2004B
:104FD0001C69EFF3108C72B6D4E8CFEF0122BEF15A
:104FE000000FF9D1C4E84E2FBEF1000FF4D1BFF38A
:104FF0005F8F428889B292B28A4207D000221B6931
:10500000C3E88F2F8CF31088002010BD42F40042BB
:1050100042800121002218699971C0E88F2F8CF31A
:1050200010881C78DA68084602F50153A1405960DF
:1050300010BD0020704700BF2DE9F041861F41F1EF
:10504000FF35B04271EB050338BF002682B038BF90
:10505000354604460F4600F06BF9301A65EB010344
:10506000012873F1000306DA2046394602B0BDE894
:10507000F04100F099B900F05BF9864265EB01015F
:1050800000290ADB0021174B3246009316482B46B5
:105090000191FFF72DFF0028E6DB4FF0000C1348CD
:1050A000134A436A9D4204D8816AB142DCD29D42D0
:1050B000DAD11368EFF3108172B6D3E8CF8F5FF0C7
:1050C000010EB8F1000FF8D1C3E848EFB8F1000FB6
:1050D000F3D1BFF35F8F1368C3E88FCF81F31088DC
:1050E00020BFDEE7B94A00107408002000000B4022
:1050F0007C55032010B5044600F01AF94FF47A737A
:105100004FF0FF3C6FF00042E4FB0301BDE81040AC
:10511000844572EB01033CBF60461146FFF78CBF2C
:105120002DE9F04306460D4683B0EFF30584E4B263
:105130003CB1274B586AA8421CD2002003B0BDE8FE
:10514000F083244FD7F80C9097F80080484600F081
:10515000E7F808F1040859F828301B1A301A65EBF3
:105160000101984271F1000111DB20BF184B586A10
:10517000A842E2D39B6AB34203D3012003B0BDE847
:10518000F083401B18BF012003B0BDE8F08300F09E
:10519000CFF8864265EB01010029CADB0E4B384689
:1051A000CDE9003432462B46FFF7A2FE011EC0DDDA
:1051B000074B5A6AAA4208D39B6AB34203D30548F5
:1051C000FFF7FAFEB5E7AA42F9D120BFF7E700BF23
:1051D00000000B4074080020B94A00102DE9F0418E
:1051E0000446DDE9071552EA030070D0002B16468D
:1051F0001F4671DB0698C5E900232861AC60696130
:1052000000F096F84FF0FF326FF00043801947EB43
:105210000107824273EB07013CBF1F46104623691A
:10522000EFF3108872B6D3E8CF1F01220029FAD11C
:10523000C3E8412F0029F6D1BFF35F8FB4F90260B4
:10524000616906EB4603002E4FEAC30C01EBC30372
:1052500046DB31F80C204FF0000E62802269C2E874
:105260008FEF88F310885A88C3E902070132C2F32E
:105270000E02012A38BF01221F485A805D61186161
:1052800042EA06422369EFF3108072B6D3E8CF8F6B
:105290000127B8F1000FF9D1C3E8487FB8F1000F3A
:1052A000F4D1BFF35F8FA38821F80C30A680236967
:1052B000C3E88FEF80F3108801202178E36800FABB
:1052C00001F103F501535960EA60BDE8F081012660
:1052D000002732463B468DE7564263EB430789E79A
:1052E00000202369C3E88F0F88F310884FF0FF3246
:1052F000EA60BDE8F08100BFF94A001010B4054B28
:10530000054C064AA04214BF1846581C5DF8044BD1
:10531000FFF71AB81C19002000800B40044401104C
:105320000346416A0A46986A596A8A42FAD1704726
:10533000034B596A0A46986A596A9142FAD17047F2
:1053400000000B4010B4174A536A9C46946A536A93
:105350006345FAD1001959414FF0000228BF0122DC
:105360000346CAB10F4B596A4B1C08BF0B4608D005
:105370004FF0FF310B460B48426A8A42FCD38A4207
:1053800007D1084A02E0506A884202D1906A9842E6
:10539000F9D35DF8044B7047024A526A9142EAD849
:1053A000EDE700BF00000B40074A536A9942FCD862
:1053B000994207D1044B02E05A6A914202D19A6A9B
:1053C0008242F9D3704700BF00000B4070B516460B
:1053D0000D4619460446FFF727FB2946701C00F0CE
:1053E000A3FE0023E6816060A581A36070BD00BFBD
:1053F00038B504460368EFF3108572B6D3E8CF0FD3
:1054000001220028FAD1C3E8402F0028F6D1BFF3CB
:105410005F8F20896389E289C31A44BF02F1010CBE
:105420006344934206D100202368C3E88F0F85F3BD
:10543000108838BDA289636802FB00300AF01CF8AE
:1054400000222389E18901339BB2994238BF134678
:1054500021682381C1E88F2F85F3108840BF012088
:1054600038BD00BF38B504460368EFF3108572B647
:10547000D3E8CF0F01220028FAD1C3E8402F00283B
:10548000F6D1BFF35F8FB4F80AC02389B3EB0C00E9
:1054900006D448B92368C3E88F0F85F3108838BD58
:1054A000E38901331844F4E741B10846A2896168F1
:1054B00002FB0C1109F0E0FFB4F80AC0E3890CF11B
:1054C000010C1FFA8CFC634538BF4FF0000C2268BA
:1054D0000023A4F80AC0C2E88F3F85F3108840BFBC
:1054E000012038BDF8B5054606200E4600F05CF9EF
:1054F000002842D0354A3648954214BF4FF08062AA
:105500004FF00062334B344902601A608C6832EA13
:105510000404FBD12D4B4FF48071EB1AB3FA83F3E3
:105520002E4A5B09062022F8131000F03DF9C30053
:10553000B3FBF6F30133DA0920D140260121696279
:10554000AA622F6BFB0722D42B46002253F82C1F94
:10555000062003F5805422602F6300F025F940F205
:10556000013103228000B0FBF6F0EB6A83F0700398
:1055700003F07E0323602963AA64F8BD4FF6FE7131
:105580008A421BD922464FF6FF71154ED7E740F2EB
:10559000013205F540531A636B6AAC6A062004EBCE
:1055A000831400F001F90F4BA402A3FB0023DB0AD4
:1055B0000021B4FBF3F0FFF7C5FEC5E7C3F34503D5
:1055C000114603EB82161A46B9E700BF0080074078
:1055D00000200240003002400000024084550320B9
:1055E000C0FF3F00757B2B8F2DE9F047089C9C4244
:1055F0004FD806464FEA134A1D040F469046002333
:105600002246284651460EF06BF906EB4604A400EC
:1056100004F1804404F5803471B351464FF0000921
:105620006368301FC0B2012836D94FF40065294A9B
:1056300004F540531D6052F826503DB15369B3FB49
:10564000F5F3013303EB4303033BFDD2236804F579
:10565000805583EA481303F0E00301282B602DD91D
:1056600042F826104FF4006204F500531A6001203E
:10567000C4F80490BDE8F08763688146984200D979
:10568000606002460B46284651460EF029F9014655
:10569000C7E70020BDE8F087012FC6D1032204F53B
:1056A00040531A60A368DB07FCD5236804F58055D6
:1056B00083EA481303F0E003064A2B6001202368C5
:1056C000B8407B4003F003032B60A3680342FCD087
:1056D000C6E700BF2C19002000EB400C4FEA8C0CF1
:1056E0000CF1804C0CF5803CF0B51646DCF804203B
:1056F000051FB2F5803F38BF4FF48032EDB238BF9E
:10570000CCF80420012D2AD94FF40067254C0CF564
:105710004052176054F82020B2B9DCF80020012D67
:1057200082EA461202F0E0020CF5805632602AD975
:105730004FF4006144F820304FF480330CF50052F0
:105740001160CCF80430F0BD6769B7FBF2FE0EF1D2
:10575000010E0EEB4E0EBEF1030EFCD2DDE7012969
:10576000D2D103240CF540521460DCF80820D20793
:10577000FBD5DCF800200B4C82EA461202F0E00276
:105780000CF5805632600122DCF800504D4005F0E7
:105790000305356002FA01F1DCF808200A42FBD06B
:1057A000C6E700BF2C190020014B53F820007047BA
:1057B0002C190020584B2DE9F0431C6C1746B4F50A
:1057C000803F38BF4FF480320E464FF003018046D1
:1057D00038BF1A64514A504B83B0D1635C6CE50703
:1057E000FCD5DA6B4E4982F0200202F0E002CA6377
:1057F000DB6B494D83F0010303F00303CB636C6C57
:10580000A407FCD54FF400624FF48039454B464C59
:10581000DA63464B4246636101213346C5F8409046
:105820004348009700F056F94FF400616B6B07FB9B
:1058300006F64B4538BFC5F83490384B2269B8FBA3
:10584000F6F619633AB16369B3FBF2F3013303EB84
:105850004303033BFDD2304B31491A6B02F0E002A7
:105860000A631A6B82F0020202F003020A63996B68
:105870004807FCD54FF400654FF4803229490D6389
:105880002C495A632161196C91424FF0030138BFD2
:105890001A64224B204AD963536CD907FCD5D36BC9
:1058A0001F4D03F0E003EB63D36B1B4983F001034F
:1058B00003F00303EB634B6C9B07FCD54FF4803381
:1058C0004FF40065174A6661D5630B64CA6C9A424F
:1058D00038BFCB644FF40061104BA26999643AB1B0
:1058E0006369B3FBF2F3013303EB4303033BFDD2E4
:1058F0004FF400604FF48031074A094D936C83F0F8
:10590000400303F0E003AB64064B084DA5619864C7
:10591000D16403B0BDE8F0830000014000300140D5
:1059200000100140002001402C190020006CDC0216
:1059300000000540001BB7002DE9F04F4FF4A078A0
:10594000994685B0CDE902125F4CDFF884A1544539
:105950000AD908F1FF38A4F53B54B8F10F0FA4F1B0
:105960002004F4D1002069E0072304F537220194D4
:1059700003FB03F402F5D872B2FBF4FE70454FF05E
:10598000010C4FF002074FF003064FF004054FF0F3
:1059900005013FD0B3F1010E00F094800EFB03F43B
:1059A000B2FBF4FB58454CD019B301FB03F4B2FB36
:1059B000F4FB58454FD0E5B105FB03F4B2FBF4FB13
:1059C000584553D0AEB106FB03F4B2FBF4FB584587
:1059D00057D077B107FB03F4B2FBF4FB58455BD01B
:1059E000BCF1000F05D00CFB03F4B2FBF4FB8345C4
:1059F0005DD0734603FB03F4B2FBF4FE704501F186
:105A0000FF3105F1FF3506F1FF3607F1FF370CF1E5
:105A1000FF3CBFD104FB1024002CBBD19E464A465C
:105A2000DDF808B0DDF80C900120284901FB08F1F1
:105A3000CBF80010C9F80030C2F800E005B0BDE8AE
:105A4000F08F04FB1024002CAED14A46DDF808B0DC
:105A5000DDF80C90E8E704FB1024002CABD14A469B
:105A60008E46DDF808B0DDF80C90DDE704FB10246D
:105A7000002CA7D14A46AE46DDF808B0DDF80C9000
:105A8000D2E704FB1024002CA3D14A46B646DDF829
:105A900008B0DDF80C90C7E704FB1024002C9FD160
:105AA0004A46BE46DDF808B0DDF80C90BCE704FBC2
:105AB0001024002C9DD14A46E646DDF808B0DDF8FA
:105AC0000C90B1E7019C44E750262F00001BB70063
:105AD00050F80C0070B4039D04682D0345EA03459B
